:100000000C948E030C94B6030C94B6030C94B603B4
:100010000C94B6030C94B6030C94B6030C94B6037C
:100020000C94B6030C94B6030C94B6030C94B6036C
:100030000C94B6030C94B6030C94B6030C94B6035C
:100040000C94A30D0C94B6030C944C0E0C94260E39
:100050000C94B6030C94B6030C94B6030C94B6033C
:100060000C94B6030C94B60300407A10F35A00A027
:10007000724E18090010A5D4E80000E87648170071
:1000800000E40B54020000CA9A3B000000E1F505B1
:10009000000080969800000040420F000000A086FB
:1000A00001000000102700000000E803000000002D
:1000B0006400000000000A000000000001000000D1
:1000C00000002C76D888DC674F0823DFC1DFAE59EB
:1000D000E1B1B796E5E3E453C63AE651997696E87E
:1000E000E6C28426EB898C9B62ED407C6FFCEFBC02
:1000F0009C9F40F2BAA56FA5F490055A2AF75C932D
:100100006B6CF9676DC11BFCE0E40D47FEF520E662
:10011000B500D0ED902E0300943577050080841E45
:10012000080000204E0A000000C80C333333330FA0
:10013000986E12831141EF8D2114893BE65516CF3D
:10014000FEE6DB18D1844B381BF77C1D901DA4BB49
:10015000E424203284725E228100C9F124ECA1E5FE
:100160003D2713018032118064260104B1020B1473
:10017000C0020800C10105C5024130C701C1EC0140
:100180001B3A8155642A040000007F2B0400000004
:100190009F3601C8B70100F20100E08F2824223108
:1001A0002B0E53A5421618121A140332E18F171B97
:1001B0001D0E14112CA53D09272D252B3C32138033
:1001C0000A2980FF00000000003E5B4F5B3E3E6B53
:1001D0004F6B3E1C3E7C3E1C183C7E3C181C577DE1
:1001E000571C1C5E7F5E1C00183C1800FFE7C3E72D
:1001F000FF0018241800FFE7DBE7FF30483A060E3F
:100200002629792926407F050507407F05253F5A85
:100210003CE73C5A7F3E1C1C08081C1C3E7F1422F5
:100220007F22145F5F005F5F06097F017F006689A0
:10023000956A606060606094A2FFA29408047E04E6
:100240000810207E201008082A1C08081C2A08080C
:100250001E101010100C1E0C1E0C30383E383006CC
:100260000E3E0E06000000000000005F00000007C8
:10027000000700147F147F14242A7F2A12231308F6
:10028000646236495620500008070300001C2241D2
:10029000000041221C002A1C7F1C2A08083E080876
:1002A0000080703000080808080800006060002026
:1002B000100804023E5149453E00427F4000724909
:1002C0004949462141494D331814127F10274545AD
:1002D00045393C4A494931412111090736494949C3
:1002E00036464949291E0000140000004034000031
:1002F000000814224114141414140041221408029A
:10030000015909063E415D594E7C1211127C7F490C
:100310004949363E414141227F4141413E7F494961
:1003200049417F090909013E414151737F0808088D
:100330007F00417F41002040413F017F081422415E
:100340007F404040407F021C027F7F0408107F3EB8
:100350004141413E7F090909063E4151215E7F0925
:10036000192946264949493203017F01033F40408C
:10037000403F1F2040201F3F4038403F6314081477
:100380006303047804036159494D43007F414141AF
:100390000204081020004141417F04020102044090
:1003A00040404040000307080020545478407F2814
:1003B0004444383844444428384444287F3854540A
:1003C000541800087E090218A4A49C787F0804042D
:1003D0007800447D40002040403D007F10284400CC
:1003E00000417F40007C047804787C08040478385D
:1003F00044444438FC1824241818242418FC7C088D
:10040000040408485454542404043F44243C404009
:10041000207C1C2040201C3C4030403C44281028BC
:10042000444C9090907C4464544C44000836410005
:100430000000770000004136080002010204023C7F
:100440002623263C1EA1A161123A4040207A38544E
:1004500054555921555579412154547841215554C9
:10046000784020545579400C1E527212395555551A
:1004700059395454545939555454580000457C4105
:100480000002457D420001457C40F0292429F0F01E
:10049000282528F07C545545002054547C547C0A6F
:1004A000097F4932494949323248484832324A483C
:1004B00048303A4141217A3A42402078009DA0A03C
:1004C0007D39444444393D4040403D3C24FF242490
:1004D000487E4943662B2FFC2F2BFF0929F620C0AD
:1004E000887E090320545479410000447D413048FE
:1004F000484A32384040227A007A0A0A727D0D1941
:10050000317D2629292F28262929292630484D40A2
:1005100020380808080808080808382F10C8ACBA9E
:100520002F102834FA00007B000008142A1422221D
:10053000142A1408AA005500AAAA55AA55AA000010
:1005400000FF00101010FF00141414FF001010FF23
:1005500000FF1010F010F0141414FC001414F70035
:10056000FF0000FF00FF1414F404FC141417101F04
:1005700010101F101F1414141F00101010F0000092
:1005800000001F101010101F10101010F0100000AD
:1005900000FF101010101010101010FF10000000BD
:1005A000FF140000FF00FF00001F10170000FC04F4
:1005B000F414141710171414F404F40000FF00F7D7
:1005C00014141414141414F700F71414141714103A
:1005D000101F101F141414F4141010F010F0000069
:1005E0001F101F0000001F14000000FC140000F08A
:1005F00010F01010FF10FF141414FF141010101F2F
:1006000000000000F010FFFFFFFFFFF0F0F0F0F03F
:10061000FFFFFF0000000000FFFF0F0F0F0F0F385C
:10062000444438447C2A2A3E147E02020606027E96
:10063000027E0263554941633844443C04407E20B5
:100640001E2006027E020299A5E7A5991C2A492AC6
:100650001C4C7201724C304A4D4D30304878483055
:10066000BC625A463D3E494949007E0101017E2A4D
:100670002A2A2A2A44445F444440514A4440404480
:100680004A51400000FF0103E080FF000008086BB2
:100690006B083612362436060F090F0600001818AC
:1006A0000000001010003040FF0101001F01011E7A
:1006B00000191D1712003C3C3C3C000000000000EB
:1006C000000000240027002A000000000025002868
:1006D000002B000000000023002600290004040471
:1006E00004040404040202020202020303030303DB
:1006F00003010204081020408001020408102001B8
:100700000204081020000000080002010000030499
:1007100007000000000000000000961E11241FBE0C
:10072000CFEFD8E0DEBFCDBF23E0A8EAB2E001C042
:100730001D92AF3CB207E1F712E0A0E0B1E0E0E5C6
:10074000FCE402C005900D92A83AB107D9F713E076
:10075000CEE8D3E004C02197FE010E941524CD38D5
:10076000D107C9F70E947E1C0C9426260C94000029
:100770008091B4029091B502009709F44AC19C019E
:10078000295731092330310510F40C94511281306E
:10079000910509F0A1C08091B6029091B70200972F
:1007A000A9F444E150E060E070E08CE491E00E9444
:1007B000E8134FEF60E080911A010E94121448E2A2
:1007C00050E060E070E084E591E01FC08130910569
:1007D00099F544E150E060E070E08CE491E00E9423
:1007E000E81348E250E060E070E084E591E00E94A8
:1007F000E8134FEF60E080911A010E9412144CE35D
:1008000050E060E070E08FE591E00E94E81340E086
:1008100060E080E00E94121464EF71E080E090E0FC
:100820000E9462168091B6029091B7020196909351
:10083000B7028093B60208958230910529F544E10C
:1008400050E060E070E08CE491E00E94E81348E240
:1008500050E060E070E084E591E00E94E8134CE332
:1008600050E060E070E08FE591E00E94E8134FEF08
:1008700060E080911A010E94121440E550E060E0AF
:1008800070E088E691E0C1CF039709F0C2C048E26A
:1008900050E060E070E084E591E00E94E8134CE3F2
:1008A00050E060E070E08FE591E00E94E81340E5E1
:1008B00050E060E070E088E691E00E94E8134FEFBE
:1008C00060E080911A010E94121444E150E060E05F
:1008D00070E08CE491E08CC00C9709F09AC0809194
:1008E000B6029091B7020097A9F444E150E060E0AD
:1008F00070E08FE691E00E94E8134FEF60E0809196
:100900001A010E94121448E250E060E070E08CE7A7
:1009100091E07BCF81309105E9F444E150E060E063
:1009200070E08FE691E00E94E81348E250E060E05A
:1009300070E08CE791E00E94E8134FEF60E0809157
:100940001A010E9412144CE350E060E070E089E864
:1009500091E05BCF8230910529F544E150E060E001
:1009600070E08FE691E00E94E81348E250E060E01A
:1009700070E08CE791E00E94E8134CE350E060E007
:1009800070E089E891E00E94E8134FEF60E0809109
:100990001A010E94121440E550E060E070E081E925
:1009A00091E033CF0397A9F548E250E060E070E0B2
:1009B0008CE791E00E94E81340E550E060E070E0D1
:1009C00081E991E00E94E8134CE350E060E070E0C0
:1009D00089E891E00E94E8134FEF60E080911A01EE
:1009E0000E94121444E150E060E070E08FE691E074
:1009F0000E94E81340E060E080E00E94121464EF7F
:100A000071E080E090E00E9462161092B7021092AE
:100A1000B60208951092B7021092B6028091B40205
:100A20009091B502009701F18130910511F40C9479
:100A30009C169C012B5031092430310510F40C9484
:100A4000D21289579109039778F48091AC02909162
:100A5000AD0201969093AD028093AC0264E670E023
:100A600080E090E00C94621608958EBD00000DB4F5
:100A700007FEFDCF8EB508951F93CF93DF93182FF8
:100A8000EB016F3F710519F014F0CFEFD0E060E09B
:100A900083E00E94E015812F0E943505CE01D7FF2B
:100AA00002C080E090E00E94350561E083E0DF91C4
:100AB000CF911F910C94E015CF92DF92EF92FF92AD
:100AC0000F931F93CF93DF9300D000D000D0CDB70A
:100AD000DEB78091B4029091B502009719F40E949C
:100AE000D212A3C58130910509F0B0C28091B6023F
:100AF0009091B702009709F037C18FEF9FEF0E94E6
:100B0000241441E050E062E370E08EE491E00E9442
:100B1000E81344E150E060E070E08EE991E00E946B
:100B2000E81364E670E080E090E00E9462168BE0DB
:100B300090E09093B5028093B40209E110E0109325
:100B4000C9020093C8021093CB020093CA0210920C
:100B5000CD021092CC021093CF020093CE020E94DD
:100B6000CC11892B09F0FDC048E250E060E070E054
:100B700086EA91E00E94E81384E190E09093C90234
:100B80008093C80285E090E09093CD028093CC02E0
:100B90001093CF020093CE020E94CC11892B09F052
:100BA000E0C048E250E060E070E084EB91E00E9439
:100BB000E8131092030110920201EE24EA94F12C42
:100BC00000910201109103010F331105A4F4B70144
:100BD000601B710B81E190E00E943C056AE070E0CF
:100BE00080E090E00E9462160F5F1F4F1093030198
:100BF00000930201E5CF8EE190E09093C9028093CB
:100C0000C80285E090E09093CD028093CC0290934F
:100C1000CF028093CE020E94CC11892B09F0A1C093
:100C200048E250E060E070E082EC91E00E94E8135E
:100C30001092010110920001EE24EA94F12C00912F
:100C400000011091010106321105A4F4B701601BE7
:100C5000710B82E190E00E943C056AE070E080E068
:100C600090E00E9462160F5F1F4F109301010093E6
:100C70000001E5CF2EE1E22EF12CF092C902E092C4
:100C8000C80205E010E01093CD020093CC0210934F
:100C9000CF020093CE020E94CC11892B09F061C0D3
:100CA00048E250E060E070E080ED91E00E94E813DF
:100CB000F092C902E092C8021093CD020093CC02D8
:100CC0001093CF020093CE020E94CC11892B09F021
:100CD00048C048E250E060E070E08EED91E00E9494
:100CE000E813EE24EA94F12C9AE0C92ED12C00915D
:100CF0000201109103010F3F110509F024F5B7011E
:100D0000601B710B81E190E00E943C05C801B601B7
:100D10000E94ED23892B81F48091000190910101C3
:100D200005969093010180930001B701681B790B30
:100D300082E190E00E943C050F5F1F4F109303017A
:100D400000930201D4CF44E150E060E070E08CEE0B
:100D500091E00E94E81368E873E180E090E00E946F
:100D600062160E949C1661C48130910519F40E949C
:100D700051125BC48230910509F030C18FEF9FEFB3
:100D80000E94241441E050E063E070E081E691E0CD
:100D90000E94E81344E150E060E070E089EF91E0E8
:100DA0000E94E81348E250E060E070E084E092E0E6
:100DB0000E94E8134CE350E060E070E08FE092E0C6
:100DC0000E94E81340E550E060E070E087E192E0C7
:100DD0000E94E8134EE650E060E070E08DE091E0A4
:100DE0000E94E81364E670E080E090E00E946216E2
:100DF0008DE090E09093B5028093B40201E010E0A2
:100E000082E00E94B715892B09F00FC41092B40339
:100E10001092B30320E030E040E951EC6091AF0361
:100E20007091B0038091B1039091B2030E94E823C6
:100E300018164CF444E150E068E770E083E292E079
:100E40000E94E8131EC04FEF6FEF8FEF0E94121445
:100E500044E150E068E770E083E292E00E94E8132A
:100E600040E060E080E00E94121444E150E068E756
:100E700070E082E292E00E94E8131093B4030093C2
:100E8000B30320E030E040E951EC6091AB03709196
:100E9000AC038091AD039091AE030E94E823181635
:100EA0004CF448E250E068E770E083E292E00E9490
:100EB000E8131EC04FEF6FEF8FEF0E94121448E24D
:100EC00050E068E770E083E292E00E94E81340E0BF
:100ED00060E080E00E94121448E250E068E770E0B1
:100EE00082E292E00E94E8131093B4030093B303EC
:100EF00020E030E0A9016091A7037091A8038091E0
:100F0000A9039091AA030E94E82318164CF44CE31D
:100F100050E063E570E083E292E00E94E8131EC0B7
:100F20004FEF6FEF8FEF0E9412144CE350E063E538
:100F300070E083E292E00E94E81340E060E080E02D
:100F40000E9412144CE350E063E570E082E292E00C
:100F50000E94E8131093B4030093B30320E030E041
:100F600040E951EC6091A3037091A4038091A50323
:100F70009091A6030E94E82318164CF440E550E037
:100F800068E770E083E292E00E94E8131EC04FEF32
:100F90006FEF8FEF0E94121440E550E068E770E0B9
:100FA00083E292E00E94E81340E060E080E00E946B
:100FB000121440E550E068E770E082E292E00E949F
:100FC000E8131093B4030093B30382E00E94B715B3
:100FD000892B09F415CF0E940A0512CF039709F057
:100FE00024C31092B7021092B6028FEF9FEF0E94B7
:100FF000241441E050E068E270E08AE691E00E944B
:10100000E81344E150E060E070E086E292E00E9484
:10101000E8134EE650E060E070E08DE091E00E9461
:10102000E8134EE650E06BE470E08AE091E00E9445
:10103000E81364E670E080E090E00E9462168EE0C3
:1010400090E09093B5028093B402EFC28C3091058A
:1010500009F0D8C28091B6029091B702009709F0CA
:10106000EEC01092AD021092AC028FEF9FEF0E9483
:10107000241441E050E064E170E081E791E00E94D7
:10108000E8134EE150E068E270E083E392E00E94F2
:10109000E81383E08093830310911A014FEF60E01F
:1010A000812F0E9412144CE350E068E270E08FEB55
:1010B00093E00E94E8134CE350E060E870E084E0C5
:1010C00091E00E94E8134CE350E060E970E08BE3AC
:1010D00092E00E94E81340E060E080E00E94121479
:1010E00082E0809383034EE650E060E070E08DE3A1
:1010F00092E00E94E8134EE650E06BE470E083E279
:1011000092E00E94E8134EE650E066E970E08FE35B
:1011100092E00E94E81389E790E09093B5028093F3
:10112000B402C12CD12C760103E085E00E94B715F2
:10113000892B09F07AC286E00E94B715892B11F03D
:101140000E945C0585E00E94B715892B11F00E9472
:10115000B80382E00E94B715892B11F00E940A059E
:101160006091AC027091AD02072E000C880B990BB8
:101170000E947F212DEC3CEC4CEC5DE30E94DE21D3
:101180009B01AC016091AF037091B0038091B103FA
:101190009091B2030E94D3226093A8027093A90297
:1011A0008093AA029093AB02A70196010E94782136
:1011B0008823E1F1009383034FEF6FEF8FEF0E94DD
:1011C00012144CE350E068E270E08FEB93E00E9471
:1011D000E8134FEF60E0812F0E9412144091A802A3
:1011E0005091A9026091AA027091AB02CE010196C2
:1011F0000E94501445E050E06FEB73E0CE01019681
:101200000E942E144CE350E068E270E08FEB93E014
:101210000E94E81340E060E080E00E94121482E047
:1012200080938303CE0101960E942914C090A802E6
:10123000D090A902E090AA02F090AB0276CF813064
:10124000910509F0F2C01092B7021092B602109206
:10125000AD021092AC028FEF9FEF0E94241441E088
:1012600050E064E170E08EE791E00E94E8134EE107
:1012700050E068E270E083E392E00E94E81383E0CC
:101280008093830310911A014FEF60E0812F0E9439
:1012900012144CE350E068E270E08AEB93E00E94A5
:1012A000E8134CE350E060E870E084E091E00E94D5
:1012B000E8134CE350E060E970E08BE392E00E94B9
:1012C000E81340E060E080E00E94121482E0809326
:1012D00083034EE650E060E070E08DE392E00E9410
:1012E000E8134EE650E06BE470E083E292E00E9487
:1012F000E8134EE650E066E970E08FE392E00E946A
:10130000E8138AE790E09093B5028093B402C12C71
:10131000D12C760103E085E00E94B715892B09F0F6
:1013200084C186E00E94B715892B11F00E945C05EC
:1013300085E00E94B715892B11F00E94B80382E066
:101340000E94B715892B11F00E940A056091AC022A
:101350007091AD02072E000C880B990B0E947F2123
:101360002DEC3CEC4CEC5DE30E94DE219B01AC01DA
:101370006091AB037091AC038091AD039091AE038B
:101380000E94D3226093A8027093A9028093AA02BC
:101390009093AB02A70196010E9478218823E1F186
:1013A000009383034FEF6FEF8FEF0E9412144CE313
:1013B00050E068E270E08AEB93E00E94E8134FEFA0
:1013C00060E0812F0E9412144091A8025091A9025E
:1013D0006091AA027091AB02CE0101960E94501456
:1013E00045E050E06AEB73E0CE0101960E942E14B6
:1013F0004CE350E068E270E08AEB93E00E94E8136F
:1014000040E060E080E00E94121482E08093830359
:10141000CE0101960E942914C090A802D090A90282
:10142000E090AA02F090AB0276CF029709F0FDC0DF
:101430001092B7021092B6021092AD021092AC0256
:101440008FEF9FEF0E94241441E050E062E370E0D0
:101450008BE891E00E94E8134EE150E068E270E012
:1014600083E392E00E94E81383E08093830310916A
:101470001A014FEF60E0812F0E9412144CE350E0FC
:1014800068E270E085EB93E00E94E8134CE350E0E3
:1014900060E870E081E492E00E94E81340E060E0E0
:1014A00080E00E94121482E0809383034EE650E0B5
:1014B00060E070E08DE392E00E94E8134EE650E0B9
:1014C0006BE470E083E292E00E94E8134EE650E0A5
:1014D00066E970E08FE392E00E94E8138BE790E00A
:1014E0009093B5028093B402C12CD12C760103E015
:1014F00085E00E94B715892B09F097C086E00E940D
:10150000B715892B11F00E945C0585E00E94B71584
:10151000892B11F00E94B80382E00E94B715892B35
:1015200011F00E940A056091AC027091AD02072E85
:10153000000C880B990B0E947F212DEC3CEC4CECAD
:101540005DE30E94DE219B01AC016091A7037091D5
:10155000A8038091A9039091AA030E94D3226093CB
:10156000A8027093A9028093AA029093AB02A701EC
:1015700096010E9478218823E1F1009383034FEFC5
:101580006FEF8FEF0E9412144CE350E068E270E0BE
:1015900085EB93E00E94E8134FEF60E0812F0E94FB
:1015A00012144091A8025091A9026091AA02709170
:1015B000AB02CE0101960E94501445E050E065EB6D
:1015C00073E0CE0101960E942E144CE350E068E2D5
:1015D00070E085EB93E00E94E81340E060E080E07B
:1015E0000E94121482E080938303CE0101960E9430
:1015F0002914C090A802D090A902E090AA02F0900D
:10160000AB0276CF89579109039778F48091AC02A9
:101610009091AD0201979093AD028093AC0264E685
:1016200070E080E090E00E94621626960FB6F89473
:10163000DEBF0FBECDBFDF91CF911F910F91FF9005
:10164000EF90DF90CF900895CF92DF92EF92FF92CC
:101650000F931F93CF93DF936C017A018B01C0E04E
:10166000D0E0CE15DF0581F0D8016D918D01D60156
:10167000ED91FC910190F081E02DC6010995892B37
:1016800011F02196EECF7E01C701DF91CF911F911E
:101690000F91FF90EF90DF90CF900895EF92FF921F
:1016A0000F931F93DC011A960D911C911B971896AE
:1016B0002D913C911997ED91FC910288F389E02DD1
:1016C0007B0140E050E060E070E009951F910F91D0
:1016D000FF90EF900895CF93CFB7F8948091AE022A
:1016E000811127C0E7EEF6E08491EBEFF6E09491EC
:1016F000E82FF0E0EE0FFF1FE154F94FA591B491F0
:10170000EC91E92321F461E08AE00E94E01561E0B8
:101710008AE00E940F168CB580618CBD8CB5806408
:101720008CBD61E08DE00E940F1661E08BE00E94AD
:101730000F168091AE028F5F8093AE02CFBFCF9124
:101740000895611102C060E201C061E20C94A4112D
:101750000E94022682ED92E00E94841321E0892BF0
:1017600009F420E0822F0895AF92BF92CF92DF92CA
:10177000EF92FF920F931F93CF93DF93EC015901E8
:10178000680128853985621773070CF075C08A8552
:101790009B85481759070CF06FC0FB01EA0DFB1D34
:1017A0002E173F071CF45901A61AB70A9A012C0DEF
:1017B0003D1D821793071CF46C01C41AD50A8D8D48
:1017C000823091F49701322F2227330F330F330FDA
:1017D000C701807E9770822B932BEF2CFF24E69419
:1017E000E694E694E82AF92A0FEF040F0C0D2FEF88
:1017F000260F2A0DCE010E94E7148E8D882321F03A
:101800008F8D98A10E947A11EFA1F8A5908189A9E6
:10181000892B8083EDA1FEA1908188A980958923E1
:1018200080831C141D049CF48501101611065CF4C1
:101830006F2DCE010E9451116E2DCE010E945111CB
:1018400001501109F2CF81E0C81AD108EACFEDA109
:10185000FEA1908188A9892B80838E8D882361F0D9
:10186000DF91CF911F910F91FF90EF90DF90CF907C
:10187000BF90AF900C947911DF91CF911F910F9190
:10188000FF90EF90DF90CF90BF90AF900895CF92F0
:10189000DF92EF92FF920F931F93CF93DF93EC01B0
:1018A0006901780188859985681779070CF061C00E
:1018B0002A853B85421753070CF05BC09B012C0D1A
:1018C0003D1D821793071CF46C01C61AD70A2FEF2F
:1018D000260F2C0D042FCE010E94E7148D8D82302F
:1018E00091F49701322F2227330F330F330FC701A3
:1018F000807E9770822B932BEF2CFF24E694E69446
:10190000E694E82AF92A8E8D882321F08F8D98A1FC
:101910000E947A11EFA1F8A5908189A9892B808373
:10192000EDA1FEA1908188A9809589238083C114AF
:10193000D10461F06F2DCE010E9451116E2DCE01A8
:101940000E94511181E0C81AD108F1CFEDA1FEA18A
:10195000908188A9892B80838E8D882351F0DF9117
:10196000CF911F910F91FF90EF90DF90CF900C944B
:101970007911DF91CF911F910F91FF90EF90DF9040
:10198000CF900895CF92DF92EF92FF920F931F9323
:10199000CF93DF93EC0169017801888599856817F9
:1019A00079070CF062C08A859B85481759070CF0AF
:1019B0005CC09A012C0D3D1D821793071CF46C012D
:1019C000C41AD50A0FEF040F0C0D262FCE010E946A
:1019D000E7148D8D823091F49701322F2227330F37
:1019E000330F330FC701807E9770822B932BEF2C20
:1019F000FF24E694E694E694E82AF92A0F2D8E8DCA
:101A0000882321F08F8D98A10E947A11EFA1F8A56B
:101A1000908189A9892B8083EDA1FEA1908188A95D
:101A2000809589238083C114D10461F0602FCE0199
:101A30000E9451116E2DCE010E94511181E0C81AF1
:101A4000D108F1CFEDA1FEA1908188A9892B8083D7
:101A50008E8D882351F0DF91CF911F910F91FF90D0
:101A6000EF90DF90CF900C947911DF91CF911F917F
:101A70000F91FF90EF90DF90CF900895EF92FF923B
:101A80000F93CF93DF93EC01790177FD56C08885E2
:101A90009985681779070CF050C057FD4EC08A85AC
:101AA0009B85481759070CF048C001E0040F21E05E
:101AB000260FCE010E94E7148E8D882321F08F8D92
:101AC00098A10E947A11EFA1F8A5908189A9892B8C
:101AD0008083EDA1FEA1908188A9809589238083D0
:101AE0008D8D823091F49701322F2227330F330FDF
:101AF000330FC701807E9770822B932BEF2CFF242E
:101B0000E694E694E694E82AF92A6F2DCE010E9425
:101B100051116E2DCE010E945111EDA1FEA19081B7
:101B200088A9892B80838E8D882339F0DF91CF910E
:101B30000F91FF90EF900C947911DF91CF910F915D
:101B4000FF90EF9008951F920F920FB60F921124FD
:101B50002F933F938F939F93AF93BF938091B00246
:101B60009091B102A091B202B091B3023091AF0254
:101B700023E0230F2D3720F40196A11DB11D05C0D0
:101B800026E8230F0296A11DB11D2093AF0280937A
:101B9000B0029093B102A093B202B093B3028091CD
:101BA000CE029091CF02A091D002B091D1020196C5
:101BB000A11DB11D8093CE029093CF02A093D002BD
:101BC000B093D102BF91AF919F918F913F912F918F
:101BD0000F900FBE0F901F9018950F931F93CF93E8
:101BE000DF93EC0188819981009729F02A813B815C
:101BF0002617370788F48B016F5F7F4F0E943C25C3
:101C0000009761F0998388831B830A832C813D812F
:101C1000232B11F4FC01108281E001C080E0DF91F0
:101C2000CF911F910F910895CF93DF93EC0188819D
:101C30009981009711F00E94B324198218821D82A5
:101C40001C821B821A82DF91CF9108951F920F92FE
:101C50000FB60F9211242F933F934F935F936F937F
:101C60007F938F939F93AF93BF93EF93FF9382EDF7
:101C700092E00E942615FF91EF91BF91AF919F9145
:101C80008F917F916F915F914F913F912F910F9025
:101C90000FBE0F901F9018951F920F920FB60F92C4
:101CA00011242F938F939F93EF93FF93E091E20280
:101CB000F091E3028081E091E802F091E90282FD77
:101CC00012C090818091EB028F5F8F732091EC02A4
:101CD000821751F0E091EB02F0E0EE52FD4F958F4C
:101CE0008093EB0201C08081FF91EF919F918F91D2
:101CF0002F910F900FBE0F901F9018954C7F38E0DA
:101D0000439FC001112430E043E0359527954A9563
:101D1000E1F7822B932B687F962B089508952F92DD
:101D20003F924F925F926F927F928F929F92AF926B
:101D3000BF92CF92DF92EF92FF920F931F93CF93B8
:101D4000DF93CDB7DEB72D970FB6F894DEBF0FBE89
:101D5000CDBF9D838C836A30A1F4DC0154962C9115
:101D600054971E968D919C911F97B8E02B9F800DE4
:101D7000911D1124EC81FD81978786871586148635
:101D8000F1C06D3009F4EEC02C813D813D872C8778
:101D9000D9011C96CD90DC901D9718968D919C9141
:101DA0001997C816D906BCF0EC85FD854489242F07
:101DB00030E084859585F6E04F9F800D911D1124BC
:101DC000AC85BD851D969C938E931C9756964C9121
:101DD0004111A4C0C7C0EC85FD85868497848285A7
:101DE00093858816990604F7F489F983AF2EB12CF0
:101DF000C60126E0F29F800D911D112418161906C8
:101E00009CF6C50123E0880F991F2A95E1F7880DFC
:101E1000991D1816190644F6AC85BD8552960D908D
:101E2000BC91A02DBD83AC83EC85FD850088F18934
:101E3000E02DFF83EE83F5E06F9FB00111241601C2
:101E40001A829B012C193D0939872887C4010896FD
:101E50009B878A879A81953049F0E885F985E20D5C
:101E6000F31DEC53FE4FA491AB8301C01B822401F0
:101E70003401BB81B0FF13C0AC85BD85ED91FC91F1
:101E8000B981B13031F40084F185E02D2E813F819C
:101E900019C00288F389E02DEE80FF801EC0EC811E
:101EA000FD812E813F81E217F307F1F0AC85BD85FE
:101EB000ED91FC91B981B13059F40084F185E02DA8
:101EC0002C813D81A301B1018C859D8509950CC0B4
:101ED0000288F389E02DEC80FD8085019501A20147
:101EE000B6018C859D850995EB81E695EB83FFEF27
:101EF0006F1A7F0A4A0C5B1C2A853B85261537051D
:101F000009F0B7CF3A813F5F3A835FEF251A350A70
:101F1000CA0CDB1C363009F09DCF46CF4AEF420396
:101F2000B001439F700D1124AC85BD8518964D916D
:101F30005C911997460F571F481759079CF483E087
:101F4000220F331F8A95E1F71E968D919C911F9762
:101F5000280F391F1F963C932E931E971D961C9297
:101F60001E921C9781E090E02D960FB6F894DEBF8C
:101F70000FBECDBFDF91CF911F910F91FF90EF90DA
:101F8000DF90CF90BF90AF909F908F907F906F9099
:101F90005F904F903F902F900895EF92FF920F9394
:101FA0001F93DC011A960D911C911B9718962D9189
:101FB0003C911997ED91FC910288F389E02D7B010A
:101FC00040E050E060E070E009951F910F91FF90B4
:101FD000EF9008956F927F928F929F92AF92BF92EF
:101FE000CF92DF92EF92FF920F931F93CF93DF93E5
:101FF0006C015A014801EB013B01620E731EC615CC
:10200000D70574F4D601ED91FC910484F585E02D9B
:1020100087019401A501BE01C60109952196EFCF64
:10202000DF91CF911F910F91FF90EF90DF90CF90B4
:10203000BF90AF909F908F907F906F900895EF9298
:10204000FF920F931F93260F371F21503109DC0198
:10205000ED91FC910284F385E02D78018A010995C8
:102060001F910F91FF90EF900895EF92FF920F93C1
:102070001F93240F351F21503109DC01ED91FC9194
:102080000284F385E02D780189019B0109951F9158
:102090000F91FF90EF9008956F927F928F929F9291
:1020A000AF92BF92CF92DF92EF92FF920F931F9366
:1020B000CF93DF93EC014B015A0169013801E881AC
:1020C000F9810684F785E02D87010995A501460D64
:1020D000571D41505109E881F9810684F785E02DAB
:1020E0009601B401CE010995E881F9810484F58552
:1020F000E02D9301A501B401CE010995C80CD91CAE
:10210000B60161507109E881F9810484F585E02DFB
:102110009301A501CE010995DF91CF911F910F91F8
:10212000FF90EF90DF90CF90BF90AF909F908F90F7
:102130007F906F9008952F923F924F925F926F928F
:102140007F928F929F92AF92BF92CF92DF92EF9247
:10215000FF920F931F93CF93DF9300D000D000D056
:10216000CDB7DEB72C017E836D836A015901C801AA
:10217000FC82EB824801841A950A97FE03C0919471
:102180008194910835012D813E81621A730A77FE90
:1021900003C0719461947108681479045CF43A2D59
:1021A0002B2D5C01832F922F3D812E81DE82CD82EB
:1021B000C32ED22EAD81BE81AA16BB065CF43C2D87
:1021C0002D2D6C01832F922F3D812E81BE82AD82F9
:1021D000A32EB22E85012D813E81021B130B1C0103
:1021E0002C183D0837FE03C0319421943108780142
:1021F00017FF03C03FEFE31AF30AF594E794C816FC
:10220000D9062CF08FEF9FEF9A83898304C0A1E059
:10221000B0E0BA83A9832D813E81A216B30624F1D2
:10222000D201ED91FC910084F185E02D2B813C8160
:102230006814790424F44D815E81B60103C0A601BF
:102240006D817E81C2010995E218F308F7FE06C090
:1022500029813A81C20ED31EE00EF11E8D819E812E
:1022600001969E838D83D7CF26960FB6F894DEBF56
:102270000FBECDBFDF91CF911F910F91FF90EF90D7
:10228000DF90CF90BF90AF909F908F907F906F9096
:102290005F904F903F902F900895089580E090E0D8
:1022A0000895FC01862F968D91110C94350528E038
:1022B00030E040E8A1A1B2A196A5582F542319F00F
:1022C0005C91952B03C05C91909595239C93A3A161
:1022D000B4A15C9197A5952B9C93A3A1B4A15C910B
:1022E00097A5909595239C9346952150310911F718
:1022F000089508958CBD9DBD08951F93CF93DF93DE
:10230000EC01162F8E8D882321F08F8D98A10E94CD
:102310007A11EFA1F8A5908189A9892B8083EDA17D
:10232000FEA1908188A9809589238083612FCE01A9
:102330000E945111EDA1FEA1908188A9892B808373
:10234000DF91CF911F9108951F93CF93DF93EC01FD
:10235000162F8E8D882321F08F8D98A10E947A11DF
:10236000EFA1F8A5908189A9809589238083EDA1AB
:10237000FEA1908188A9809589238083612FCE0159
:102380000E945111EDA1FEA1908188A9892B808323
:10239000DF91CF911F9108956091C8027091C90299
:1023A000072E000C880B990B0E947F212091C402FC
:1023B0003091C5024091C6025091C7020E94782117
:1023C00018163CF048E250E060E070E082E792E0EE
:1023D00056C06091CA027091CB02072E000C880B88
:1023E000990B0E947F212091C0023091C10240913F
:1023F000C2025091C3020E94782118163CF048E2B4
:1024000050E060E070E08FE792E039C06091CC026C
:102410007091CD02072E000C880B990B0E947F2132
:102420002091BC023091BD024091BE025091BF028A
:102430000E94782118163CF048E250E060E070E01D
:102440008CE892E01CC06091CE027091CF02072E02
:10245000000C880B990B0E947F212091B8023091CB
:10246000B9024091BA025091BB020E94782118161D
:10247000ACF048E250E060E070E084E992E00E9455
:10248000E81368E873E180E090E00E9462168FEF45
:102490009FEF0E94241481E090E0089580E090E096
:1024A00008951092B7021092B6028091B4029091F2
:1024B000B5020C9709F44EC08FEF9FEF0E942414D1
:1024C00041E050E068E270E086E591E00E94E813A8
:1024D0004FEF60E08FEF0E94121444E150E060E0A3
:1024E00070E08FE691E00E94E81340E060E080E059
:1024F0000E94121448E250E060E070E08CE791E046
:102500000E94E8134CE350E060E070E089E891E05D
:102510000E94E81340E550E060E070E081E991E05E
:102520000E94E8134EE650E060E070E08DE091E03C
:102530000E94E8134EE650E06BE470E08AE091E020
:102540000E94E8134EE650E066E970E087E091E013
:102550000E94E8138CE090E09093B5028093B4025F
:1025600064E670E080E090E00E94621682E00E94E3
:10257000B715892BB1F486E00E94B715892B11F0AD
:102580000E945C0585E00E94B715892B11F00E941E
:10259000B80382E00E94B715892B41F30E940A0517
:1025A000E5CF08951092B7021092B6028091B4025E
:1025B0009091B502019709F454C08FEF9FEF0E94EC
:1025C000241441E050E067E370E082EA92E00E9468
:1025D000E8134FEF60E08FEF0E94121444E150E0E7
:1025E00060E070E08CE491E00E94E81340E060E07D
:1025F00080E00E94121448E250E060E070E084E560
:1026000091E00E94E8134CE350E060E070E08FE559
:1026100091E00E94E81340E550E060E070E088E659
:1026200091E00E94E8134EE650E060E070E08DE03B
:1026300091E00E94E8134EE650E06BE470E08AE01F
:1026400091E00E94E8134EE650E066E970E087E012
:1026500091E00E94E81364E670E080E090E00E9460
:10266000621681E090E09093B5028093B40282E01C
:102670000E94B715892BB1F486E00E94B715892B0B
:1026800011F00E945C0585E00E94B715892B11F0BE
:102690000E94B80382E00E94B715892B41F30E9483
:1026A0000A05E5CF0895FC01538D448D252F30E0B8
:1026B000842F90E0821B930B541710F0CF9608954F
:1026C00001970895FC01918D828D981761F0828D9C
:1026D000DF01A80FB11D5D968C91928D9F5F9F7356
:1026E000928F90E008958FEF9FEF0895FC01918DF8
:1026F000828D981731F0828DE80FF11D858D90E065
:1027000008958FEF9FEF0895FC01918D228D892F01
:1027100090E0805C9F4F821B91098F7399270895E9
:1027200080E090E0892B29F00E94AA0B81110C9483
:1027300000000895833081F028F4813099F08230D0
:10274000A1F008958730A9F08830B9F08430D1F431
:10275000809180008F7D03C0809180008F7780936F
:102760008000089584B58F7702C084B58F7D84BDC5
:1027700008958091B0008F7703C08091B0008F7D65
:102780008093B00008953FB7F8948091CE02909165
:10279000CF02A091D002B091D10226B5A89B05C06E
:1027A0002F3F19F00196A11DB11D3FBFBA2FA92FD0
:1027B000982F8827820F911DA11DB11DBC01CD014D
:1027C00042E0660F771F881F991F4A95D1F7089539
:1027D00020918803222329F11092850320918603FA
:1027E000309187033093800320937F0330938203DB
:1027F0002093810370937C0360937B0350937E034B
:1028000040937D03009769F0FC0101900020E9F7F7
:102810003197AF01481B590BBC018FE693E00C9434
:10282000240B0895242F462F682F8FE693E00E94F3
:102830007E0EEFE6F3E021E0218F908F878B918B66
:10284000808B938B828B0895BC018FE693E00C9470
:102850004E0BFC01808191810C94B3240F931F9344
:10286000CF93DF93FC01C481D581209719F4FB013C
:10287000108211C0415051094C175D0708F4EA015C
:102880008B01FC0160817181AE01C8010E94172695
:10289000C00FD11F1882DF91CF911F910F91089522
:1028A000CF92DF92EF92FF920F931F93CF93DF931C
:1028B000CDB7DEB7A1970FB6F894DEBF0FBECDBF80
:1028C0007C01CB01BA01F7011182108213821282BE
:1028D000158214828E010F5F1F4F22E044E00E9498
:1028E000F11E6C01009771F0FC0101900020E9F7E6
:1028F00031978F01081B190BB801C7010E94ED0D1C
:10290000811104C0C7010E94140E08C0F70115838D
:102910000483B601808191810E941026A1960FB692
:10292000F894DEBF0FBECDBFDF91CF911F910F9105
:10293000FF90EF90DF90CF900895CF92DF92EF92CB
:10294000FF920F931F93CF93DF93CDB7DEB76297BC
:102950000FB6F894DEBF0FBECDBF8C01CB01F801DE
:102960001182108213821282158214824AE09E0123
:102970002F5F3F4F6901B9010E94111FF6010190BD
:102980000020E9F731977F01EC18FD08B701C80175
:102990000E94ED0D811104C0C8010E94140E08C0F0
:1029A000F801F582E482B601808191810E941026AF
:1029B00062960FB6F894DEBF0FBECDBFDF91CF9108
:1029C0001F910F91FF90EF90DF90CF900895EF92BD
:1029D000FF920F931F93CF93DF93EC01E62E142FFA
:1029E000F22E6AE20E94A41160E0CE010E947D11E5
:1029F0006AA96E0DCE010E947D1160E0CE010E9499
:102A00007D116AA96F0DCE010E947D116BE2CE018E
:102A10000E94A41160E0CE010E947D116BA9610F9C
:102A2000CE010E947D1160E0CE010E947D116BA954
:102A3000600FCE010E947D116CE2CE01DF91CF913B
:102A40001F910F91FF90EF900C94A411FC01848DC5
:102A5000DF01A80FB11DA35ABF4F2C91848D90E0C8
:102A600001968F739927848FA689B7892C93A089A3
:102A7000B1898C91837080648C93938D848D98132D
:102A800006C00288F389E02D80818F7D80830895C0
:102A9000EF92FF920F931F93CF93DF93EC0181E0AE
:102AA000888F9B8D8C8D981305C0E889F98980816A
:102AB00085FD26C0F62E0B8D10E00F5F1F4F0F73A4
:102AC0001127E02E8C8DE8120CC00FB607FCFACF50
:102AD000E889F989808185FFF5CFCE010E9426150E
:102AE000F1CF8B8DFE01E80FF11DE35AFF4FF0820D
:102AF0009FB7F8940B8FEA89FB89808180620AC0B6
:102B00009FB7F894EE89FF896083E889F98980810D
:102B10008370806480839FBF81E090E0DF91CF91DC
:102B20001F910F91FF90EF900895CF93DF93EC01E9
:102B3000888D8823C9F0EA89FB89808185FD05C0DD
:102B4000A889B9898C9186FD0FC00FB607FCF5CF17
:102B5000808185FFF2CFA889B9898C9185FFEDCF5F
:102B6000CE010E942615E7CFDF91CF910895CF9334
:102B7000DF93282F30E0F901EB5FF84F8491F901E2
:102B8000EF50F94FD491F901E352F94FC491CC239E
:102B900091F081110E949A13EC2FF0E0EE0FFF1FCD
:102BA000ED52F94FA591B491EC91ED2381E090E0C5
:102BB00021F480E002C080E090E0DF91CF910895A1
:102BC0001F93CF93DF93282F30E0F901EB5FF84F8D
:102BD0008491F901EF50F94FD491F901E352F94F83
:102BE000C491CC23C1F0162F81110E949A13EC2FAF
:102BF000F0E0EE0FFF1FE753F94FA591B4919FB797
:102C0000F894111104C08C91D095D82302C0EC9196
:102C1000DE2BDC939FBFDF91CF911F910895CF935F
:102C2000DF9390E0FC01EF50F94F2491FC01E35257
:102C3000F94F8491882361F190E0880F991FFC017E
:102C4000E154F94FC591D491FC01E753F94FA59197
:102C5000B491611109C09FB7F894888120958223AF
:102C60008883EC912E230BC0623061F49FB7F894F7
:102C70008881322F309583238883EC912E2B2C93DF
:102C80009FBF06C08FB7F894E8812E2B28838FBF93
:102C9000DF91CF9108958E3008F08E508770806458
:102CA00080937C0080917A00806480937A00809188
:102CB0007A0086FDFCCF809178002091790090E029
:102CC000922B08958F929F92AF92BF92CF92DF92F4
:102CD000EF92FF926B017C010E94C3134B015C01D8
:102CE000C114D104E104F104F1F00E94C313DC012A
:102CF000CB0188199909AA09BB09883E9340A1050F
:102D0000B10570F321E0C21AD108E108F10888EE9C
:102D1000880E83E0981EA11CB11CC114D104E104EB
:102D2000F10419F7DDCFFF90EF90DF90CF90BF90C7
:102D3000AF909F908F900895AF92BF92CF92DF9205
:102D4000EF92FF920F931F93CF93DF9300D000D0A9
:102D500000D0CDB7DEB71092B7021092B6028091C4
:102D6000B4029091B502892B09F4B5C08FEF9FEFA3
:102D70000E94241440E060E080E00E94121441E0D0
:102D800050E068E270E083E492E00E94E81344E1DE
:102D900050E060E070E08AE492E00E94E81344E1D1
:102DA00050E065E570E08FEB93E00E94E81344E1AA
:102DB00050E06AE870E084E091E00E94E81344E1AA
:102DC00050E065E970E08BE392E00E94E81348E28E
:102DD00050E060E070E082E592E00E94E81348E293
:102DE00050E065E570E08AEB93E00E94E81348E26A
:102DF00050E06AE870E084E091E00E94E81348E265
:102E000050E065E970E08BE392E00E94E8134CE348
:102E100050E060E070E08AE592E00E94E8134CE345
:102E200050E065E570E085EB93E00E94E8134CE329
:102E300050E06AE870E081E492E00E94E81340E527
:102E400050E060E070E082E692E00E94E81340E526
:102E500050E065E570E086EC93E00E94E81340E501
:102E600050E06AE870E084E091E00E94E81340E5F9
:102E700050E065E970E08BE392E00E94E81344E6DD
:102E800050E060E070E08AE692E00E94E813609112
:102E9000B3037091B403CE0101960E949D1442E0E9
:102EA00050E064EC73E0CE0101960E942E1444E6DB
:102EB00050E065E570E084EC93E00E94E8134EE694
:102EC00050E066E970E087E091E00E94E813CE01EF
:102ED00001960E9429141092B5021092B40201E0EA
:102EE00010E086E00E94B715892B09F0F6C472E362
:102EF000A72EB12CC12CD12C76018EE00E944B164E
:102F0000BC01990F880B990B0E947F212AE038E2BF
:102F100040EA5BE30E94DE2120E030E040EF52E433
:102F20000E94DE2120E030E040EA50E40E9440238D
:102F300020E030E040EA51E40E94D32220E030E07B
:102F400048EC52E40E94DE2120E030E040E05FE304
:102F50000E94D4220E94B223072E000C880B990BEA
:102F60000E947F2120E030E048EC52E40E944023A0
:102F70009B01AC016093AF037093B0038093B103E6
:102F80009093B203C701B6010E94D4226B017C0169
:102F900081E0A81AB10809F0B0CF20E030E048E4A1
:102FA00052E4C701B6010E9440236093AF037093BF
:102FB000B0038093B1039093B2032091C402309187
:102FC000C5024091C6025091C7020E947821882311
:102FD000C1F18091B4029091B502892B91F54FEF28
:102FE0006FEF8FEF0E94121444E150E065E570E04E
:102FF0008FEB93E00E94E8134091AF035091B00330
:103000006091B1037091B203CE0101960E945014F9
:1030100045E050E06FEB73E0CE0101960E942E1464
:1030200040E060E080E00E94121444E150E065E579
:1030300070E08FEB93E00E94E813CE0101960E94AE
:10304000291462E3A62EB12CC12CD12C76018EE07E
:103050000E944B16BC01990F880B990B0E947F218F
:103060002AE038E240EA5BE30E94DE2120E030E023
:1030700040EF52E40E94DE2120E030E040EA50E4DC
:103080000E94402320E030E040EA51E40E94D32235
:1030900020E030E048EC52E40E94DE2120E030E005
:1030A00040E05FE30E94D4220E94B223072E000C6E
:1030B000880B990B0E947F2120E030E048EC52E41D
:1030C0000E9440239B01AC016093C4027093C5022F
:1030D0008093C6029093C702C701B6010E94D42212
:1030E0006B017C0181E0A81AB10809F0B0CF20E0A3
:1030F00030E048E452E4C701B6010E9440236093E7
:10310000C4027093C5028093C6029093C70252E333
:10311000A52EB12CC12CD12C760180E10E944B163A
:10312000BC01990F880B990B0E947F212AE038E29D
:1031300040EA5BE30E94DE2120E030E040EF52E411
:103140000E94DE2120E030E040EA50E40E9440236B
:1031500020E030E040EA51E40E94D32220E030E059
:1031600048EC52E40E94DE2120E030E040E05FE3E2
:103170000E94D4220E94B223072E000C880B990BC8
:103180000E947F2120E030E048EC52E40E9440237E
:103190009B01AC016093AB037093AC038093AD03D0
:1031A0009093AE03C701B6010E94D4226B017C014B
:1031B00081E0A81AB10809F0B0CF20E030E048E47F
:1031C00052E4C701B6010E9440236093AB037093A1
:1031D000AC038093AD039093AE032091C002309175
:1031E000C1024091C2025091C3020E9478218823FB
:1031F000C1F18091B4029091B502892B91F54FEF06
:103200006FEF8FEF0E94121448E250E065E570E026
:103210008AEB93E00E94E8134091AB035091AC031A
:103220006091AD037091AE03CE0101960E945014DF
:1032300045E050E06AEB73E0CE0101960E942E1447
:1032400040E060E080E00E94121448E250E065E552
:1032500070E08AEB93E00E94E813CE0101960E9491
:10326000291442E3A42EB12CC12CD12C760180E18B
:103270000E944B16BC01990F880B990B0E947F216D
:103280002AE038E240EA5BE30E94DE2120E030E001
:1032900040EF52E40E94DE2120E030E040EA50E4BA
:1032A0000E94402320E030E040EA51E40E94D32213
:1032B00020E030E048EC52E40E94DE2120E030E0E3
:1032C00040E05FE30E94D4220E94B223072E000C4C
:1032D000880B990B0E947F2120E030E048EC52E4FB
:1032E0000E9440239B01AC016093C0027093C10215
:1032F0008093C2029093C302C701B6010E94D422F8
:103300006B017C0181E0A81AB10809F0B0CF20E080
:1033100030E048E452E4C701B6010E9440236093C4
:10332000C0027093C1028093C2029093C30232E341
:10333000A32EB12CC12CD12C760181E10E944B1619
:10334000BC01990F880B990B0E947F212AE038E27B
:1033500040EA5BE30E94DE212AE939E949ED5FE3B7
:103360000E94D32220E030E040EA51EC0E94DE21AE
:103370002CEA37E441E65FE30E94402320E030E09E
:1033800040EA51E40E94D42220E030E048EC52E4CC
:103390000E94DE2120E030E040E05FE30E94D42282
:1033A0000E94B223072E000C880B990B0E947F21EC
:1033B00020E030E048EC52E40E9440239B01AC0145
:1033C0006093A7037093A8038093A9039093AA0323
:1033D000C701B6010E94D4226B017C0181E0A81ACA
:1033E000B10809F0AACF20E030E048E452E4C70178
:1033F000B6010E9440236093A7037093A8038093B3
:10340000A9039093AA032091BC023091BD02409180
:10341000BE025091BF020E9478218823C1F18091A1
:10342000B4029091B502892B91F54FEF6FEF8FEFBA
:103430000E9412144CE350E065E570E085EB93E0E8
:103440000E94E8134091A7035091A8036091A9033B
:103450007091AA03CE0101960E94501445E050E0FD
:1034600065EB73E0CE0101960E942E1440E060E00F
:1034700080E00E9412144CE350E065E570E085EBBB
:1034800093E00E94E813CE0101960E94291422E3E2
:10349000A22EB12CC12CD12C760181E10E944B16B9
:1034A000BC01990F880B990B0E947F212AE038E21A
:1034B00040EA5BE30E94DE212AE939E949ED5FE356
:1034C0000E94D32220E030E040EA51EC0E94DE214D
:1034D0002CEA37E441E65FE30E94402320E030E03D
:1034E00040EA51E40E94D42220E030E048EC52E46B
:1034F0000E94DE2120E030E040E05FE30E94D42221
:103500000E94B223072E000C880B990B0E947F218A
:1035100020E030E048EC52E40E9440239B01AC01E3
:103520006093BC027093BD028093BE029093BF0271
:10353000C701B6010E94D4226B017C0181E0A81A68
:10354000B10809F0AACF20E030E048E452E4C70116
:10355000B6010E9440236093BC027093BD02809329
:10356000BE029093BF0292E3A92EB12CC12CD12CA4
:10357000760182E10E944B16BC01990F880B990BD2
:103580000E947F212AE038E240EA5BE30E94DE21CC
:1035900020E030E040EF52E40E94DE2120E030E005
:1035A00040EA50E40E94402320E030E040EA51E449
:1035B0000E94D32220E030E048EC52E40E94DE2159
:1035C00020E030E040E05FE30E94D4220E94B2237A
:1035D000072E000C880B990B0E947F2120E030E021
:1035E00048EC52E40E9440239B01AC016093A3038A
:1035F0007093A4038093A5039093A603C701B6011B
:103600000E94D4226B017C0181E0A81AB10809F064
:10361000B0CF20E030E048E452E4C701B6010E9498
:1036200040236093A3037093A4038093A503909316
:10363000A6032091B8023091B9024091BA0250918C
:10364000BB020E9478218823C1F18091B40290913D
:10365000B502892B91F54FEF6FEF8FEF0E94121497
:1036600040E550E065E570E086EC93E00E94E813E9
:103670004091A3035091A4036091A5037091A60308
:10368000CE0101960E94501445E050E066EC73E0D4
:10369000CE0101960E942E1440E060E080E00E947E
:1036A000121440E550E065E570E086EC93E00E947E
:1036B000E813CE0101960E94291482E3A82EB12CB2
:1036C000C12CD12C760182E10E944B16BC01990FCE
:1036D000880B990B0E947F212AE038E240EA5BE3E5
:1036E0000E94DE2120E030E040EF52E40E94DE2123
:1036F00020E030E040EA50E40E94402320E030E047
:1037000040EA51E40E94D32220E030E048EC52E449
:103710000E94DE2120E030E040E05FE30E94D422FE
:103720000E94B223072E000C880B990B0E947F2168
:1037300020E030E048EC52E40E9440239B01AC01C1
:103740006093B8027093B9028093BA029093BB025F
:10375000C701B6010E94D4226B017C0181E0A81A46
:10376000B10809F0B0CF20E030E048E452E4C701EE
:10377000B6010E9440236093B8027093B90280930F
:10378000BA029093BB021092B4031092B30320E0EC
:1037900030E040E951EC6091AF037091B00380914B
:1037A000B1039091B2030E94E823181624F01093FD
:1037B000B4030093B30320E030E040E951EC6091A2
:1037C000AB037091AC038091AD039091AE030E9466
:1037D000E823181624F01093B4030093B30320E0F9
:1037E00030E0A9016091A7037091A8038091A9031B
:1037F0009091AA030E94E823181624F01093B403B2
:103800000093B30320E030E040E951EC6091A30362
:103810007091A4038091A5039091A6030E94E823D0
:10382000181624F01093B4030093B30320911001F1
:10383000309111018091B3039091B4032817390797
:10384000A1F18091B4029091B502892B71F54FEFEF
:103850006FEF8FEF0E94121444E650E065E570E0D0
:1038600084EC93E00E94E8136091B3037091B40379
:10387000CE0101960E949D1442E050E064EC73E09A
:10388000CE0101960E942E1440E060E080E00E948C
:10389000121444E650E065E570E084EC93E00E9489
:1038A000E813CE0101960E9429148091B3039091F0
:1038B000B403909311018093100186E00E94B71524
:1038C000892B11F00E945C0586E00E94B715892BB8
:1038D00009F407CB0E945C0504CB26960FB6F8943A
:1038E000DEBF0FBECDBFDF91CF911F910F91FF9033
:1038F000EF90DF90CF90BF90AF900895789484B50B
:10390000826084BD84B5816084BD85B5826085BDDB
:1039100085B5816085BD80916E00816080936E0069
:10392000109281008091810082608093810080915B
:10393000810081608093810080918000816080930C
:1039400080008091B10084608093B1008091B000CC
:1039500081608093B00080917A00846080937A00C7
:1039600080917A00826080937A0080917A008160F1
:1039700080937A0080917A00806880937A00109218
:10398000C10062E086E00E940F1662E085E00E94BE
:103990000F1662E082E00E940F1660E087E00E944E
:1039A0000F1661E083E00E940F160E946B0B8BE103
:1039B00080930D0189E180930A018AE180930701D8
:1039C00087EF809304011092A2031092A10361E09B
:1039D000809199030E940F1661E0809198030E94E4
:1039E0000F168091980390E0FC01E352F94FE491A7
:1039F000F0E0EE0FFF1FE753F94F2591349130931C
:103A0000950320939403FC01EF50F94FE491E09368
:103A10009F038091990390E0FC01E352F94FE491F8
:103A2000F0E0EE0FFF1FE753F94F259134913093EB
:103A3000970320939603FC01EF50F94FE491E09334
:103A4000A00380918D03882341F00E946B0B80E5D9
:103A500080938E0310928F0349C061E080919C0394
:103A60000E940F1661E080919B030E940F168091C7
:103A70009C0390E0FC01E352F94FE491F0E0EE0F7B
:103A8000FF1FE753F94FA591B491B0939303A0930F
:103A90009203FC01EF50F94F849180939E03209193
:103AA0009B0330E0F901E352F94FE491F0E0EE0FAF
:103AB000FF1FE753F94F4591549150939103409361
:103AC0009003F901EF50F94FE491E0939D039C912D
:103AD000E82FE095E923EC93E0919003F0919103B6
:103AE000908180919D03809589238083E091940348
:103AF000F0919503908180919F0380958923808325
:103B000080919A03882321F161E00E940F1661E001
:103B100080919A030E94E01564EF71E080E090E0EC
:103B20000E94621660E080919A030E94E01564EFA3
:103B300071E080E090E00E94621661E080919A035B
:103B40000E94E01564EF71E080E090E00E94621650
:103B5000E2E6F1E0F490C3E6D1E0FF2009F437C0DB
:103B6000FE0164918FE693E00E94A4116E01F2E0E1
:103B7000CF0ED11CFE013196C4918C2F8078E82E97
:103B8000CF778601DC2FD15048F0F80164918FE6A1
:103B900093E00E947D110F5F1F4FF5CFC6018C0F80
:103BA000911DEC01E11002C0FA94D7CF8C010F5F98
:103BB0001F4FFC01649170E06F3F710511F464EFD9
:103BC00071E080E090E00E946216E801EDCF66E3CC
:103BD0008FE693E00E94A41181E08093840368EA59
:103BE0008FE693E00E947D1180EA90E09093780345
:103BF0008093770380E890E090937A038093790331
:103C000082E0809383038FEF9FEF0E94241440E0B3
:103C100060E080E00E94121441E050E068E270E051
:103C200083E492E00E94E81344E150E060E070E039
:103C30008AE492E00E94E81344E150E06AE870E010
:103C400084E091E00E94E81344E150E065E970E00F
:103C50008BE392E00E94E81348E250E060E070E0FD
:103C600082E592E00E94E81348E250E06AE870E0E2
:103C700084E091E00E94E81348E250E065E970E0DA
:103C80008BE392E00E94E8134CE350E060E070E0C8
:103C90008AE592E00E94E8134CE350E06AE870E0A5
:103CA00081E492E00E94E81340E550E060E070E0BB
:103CB00082E692E00E94E81340E550E06AE870E096
:103CC00084E091E00E94E81340E550E065E970E08F
:103CD0008BE392E00E94E81344E650E060E070E07D
:103CE0008AE692E00E94E8134EE650E066E970E052
:103CF00087E091E00E94E8130E949C1686E00E94F3
:103D0000B715892B11F00E945C0585E00E94B7155C
:103D1000892B11F00E94B80382E00E94B715892B0D
:103D200011F00E940A050E949013E6CFE2EDF2E046
:103D30001382128288EE93E0A0E0B0E08483958342
:103D4000A683B78380E291E09183808385EC90E045
:103D50009587848784EC90E09787868780EC90E055
:103D6000918B808B81EC90E0938B828B82EC90E046
:103D7000958B848B86EC90E0978B868B118E128EC0
:103D8000138E148EEFE6F3E01382128220E830E007
:103D90003583248340EA50E057834683158A15868D
:103DA00014861786168681E0848B6FEF7FEF738B06
:103DB000628B718B608B868B90E5978F10A29AE057
:103DC00091A799E092A798E093A7868F15A614A6CD
:103DD00082E391E0918380835187408733872287F4
:103DE0000895EF920F931F93CF93DF93E80147FD60
:103DF00002C034E001C034E1042E000C550B57FF23
:103E000003C0519541955109E32E022F242FAE0195
:103E10000E94361FCE01DF91CF911F910F91EF903D
:103E20000895BB274A3031F4992322F4BDE29095DE
:103E300081959F4F0C941D1FBB27FB015527AA2777
:103E4000880F991FAA1FA41710F0A41B8395505127
:103E5000B9F7A05DAA3308F0A95DA193009779F79F
:103E6000B111B1931192CB010C946821A9E0B0E09B
:103E7000ECE3FFE10C94A2226A01122FB02E2BE397
:103E8000201720F0FF24F394F00E02C02CE3F22E52
:103E90000F2D27E0AE014F5F5F4F0E949020BC01C5
:103EA0004981842F8970813031F0E1FC06C0E0FE49
:103EB00006C090E205C09DE203C09BE201C090E015
:103EC0005E2D507143FF3CC0911102C083E001C0E0
:103ED00084E0811718F4212F281B01C020E0511124
:103EE0000BC0F601822F30E2882319F03193815004
:103EF000FBCFC20ED11C20E0992329F0D6019C9360
:103F0000F60131966F01C6010396E2FE0AC03EE457
:103F1000D6013C9341E411964C93119712963C9331
:103F200006C03EE6F601308341E641833283FC0160
:103F3000322F40E2332309F442C041933150FACF8B
:103F400042FF44C0911102C083E001C084E08117A8
:103F500018F4212F281B01C020E051110BC0F601DD
:103F6000822F30E2882319F031938150FBCFC20EAB
:103F7000D11C20E0992329F0D6019C93F6013196BB
:103F80006F01C6010396E2FE0BC039E4D6013C93F3
:103F90003EE411963C93119736E412963C9307C089
:103FA00039E6F60130833EE6318336E63283FC01A2
:103FB000322F40E2332319F041933150FBCFFC0103
:103FC000E20FF11D10828EEF9FEFA6C021E030E0DE
:103FD000911102C020E030E0161617061CF4FB0118
:103FE000319602C0E1E0F0E02E0F3F1FBB2021F030
:103FF000EB2DF0E0319602C0E0E0F0E02E0F3F1F25
:10400000E12FF0E02E173F071CF4121B212F01C0F7
:1040100020E08E2D887159F4F601822F30E288233A
:1040200019F031938150FBCFC20ED11C20E09923AF
:1040300029F0D6019C93F60131966F0151110BC006
:10404000F601822F90E3882319F091938150FBCFE2
:10405000C20ED11C20E00F2D060F9A81342F307133
:1040600044FF03C0913309F40150101624F40930C1
:1040700018F008E001C001E0AB0177FF02C040E0AA
:1040800050E0FB01E41BF50BA1E0B0E0AC0FBD1F5D
:10409000EA0FFB1F8EE2A82E4B01801A91080B2D10
:1040A00010E01195019511094F3FBFEF5B0721F417
:1040B000D601AC9211966D01641775072CF0841629
:1040C000950614F4818101C080E341505109319675
:1040D000D60111967D014017510724F0D6018C932B
:1040E0006701E2CF6417750739F4963320F49533EE
:1040F00019F4311101C081E3F6018083F701822FA9
:1041000090E2882319F091938150FBCFF701E20FE1
:10411000F11D108280E090E02996ECE00C94BE2224
:10412000283008F027E03327DA01990F311D87FD89
:10413000916000966105710539F432602E5F3D9300
:1041400030E32A95E1F708959F3F30F080387105FC
:10415000610509F03C5F3C5F3D93913008F0806859
:10416000911DDF93CF931F930F93FF92EF92192F1F
:10417000987F9695E92F96959695E90FFF27EE5330
:10418000FF4F99273327EE24FF24A701E70105906D
:104190000894079428F4360FE71EF81E491F511D96
:1041A000660F771F881F991F0694A1F70590079443
:1041B00028F4E70EF81E491F561FC11D770F881FF0
:1041C000991F661F0694A1F70590079428F4F80E2E
:1041D000491F561FC71FD11D880F991F661F771FC4
:1041E0000694A1F70590079420F4490F561FC71FA6
:1041F000D81F990F661F771F881F0694A9F784910F
:104200001095177041F0D695C79557954795F79437
:10421000E7941A95C1F7E8E6F0E0689415901591D7
:1042200035916591959105907FE27395E118F10ABA
:10423000430B560BC90BD009C0F7E10CF11E431F0D
:10424000561FC91FD01D7EF4703311F48A95E6CF36
:10425000E894015030F0080F0AF40027021708F420
:10426000202F2395022F7A3328F079E37D932A9526
:10427000E9F710C07D932A9589F60694979567957E
:10428000379517951794E118F10A430B560BC90B94
:10429000D00998F023957E9173957A3308F070E3F6
:1042A0007C932013B8F77E9170617D9330F08395F5
:1042B00071E37D9370E32A95E1F71124EF90FF906D
:1042C0000F911F91CF91DF91992787FD90950895C8
:1042D000DC01FC01672F71917723E1F7329704C06D
:1042E0007C916D9370836291AE17BF07C8F30895F8
:1042F0000E94BA2108F481E00895E89409C097FB70
:104300003EF490958095709561957F4F8F4F9F4FAC
:104310009923A9F0F92F96E9BB279395F6958795F0
:1043200077956795B795F111F8CFFAF4BB0F11F4B3
:1043300060FF1BC06F5F7F4F8F4F9F4F16C088235A
:1043400011F096E911C0772321F09EE8872F762F90
:1043500005C0662371F096E8862F70E060E02AF0D1
:104360009A95660F771F881FDAF7880F96958795BD
:1043700097F90895990F0008550FAA0BE0E8FEEF92
:1043800016161706E807F907C0F012161306E40719
:10439000F50798F0621B730B840B950B39F40A2612
:1043A00061F0232B242B252B21F408950A2609F4F0
:1043B000A140A6958FEF811D811D08950E94F121D6
:1043C0000C9462220E94542238F00E945B2220F05A
:1043D000952311F00C944B220C94512211240C942F
:1043E00096220E94732270F3959FC1F3950F50E0BF
:1043F000551F629FF001729FBB27F00DB11D639F97
:10440000AA27F00DB11DAA1F649F6627B00DA11D3C
:10441000661F829F2227B00DA11D621F739FB00DE2
:10442000A11D621F839FA00D611D221F749F332752
:10443000A00D611D231F849F600D211D822F762FEB
:104440006A2F11249F5750409AF0F1F088234AF0C8
:10445000EE0FFF1FBB1F661F771F881F9150504034
:10446000A9F79E3F510580F00C944B220C949622A4
:104470005F3FE4F3983ED4F3869577956795B795BB
:10448000F795E7959F5FC1F7FE2B880F911D9695D5
:10449000879597F9089597F99F6780E870E060E045
:1044A00008959FEF80EC089500240A9416161706CD
:1044B00018060906089500240A9412161306140615
:1044C00005060895092E0394000C11F4882352F078
:1044D000BB0F40F4BF2B11F460FF04C06F5F7F4F30
:1044E0008F4F9F4F089557FD9058440F551F59F017
:1044F0005F3F71F04795880F97FB991F61F09F3FD1
:1045000079F087950895121613061406551FF2CFF9
:104510004695F1DF08C0161617061806991FF1CF49
:1045200086957105610508940895E894BB27662770
:104530007727CB0197F908952F923F924F925F9280
:104540006F927F928F929F92AF92BF92CF92DF92A3
:10455000EF92FF920F931F93CF93DF93CDB7DEB708
:10456000CA1BDB0B0FB6F894DEBF0FBECDBF09949C
:104570002A88398848885F846E847D848C849B84F3
:10458000AA84B984C884DF80EE80FD800C811B8101
:10459000AA81B981CE0FD11D0FB6F894DEBF0FBE30
:1045A000CDBFED0108955058BB27AA270E94EB22EA
:1045B0000C9462220E94542238F00E945B2220F068
:1045C00039F49F3F19F426F40C9451220EF4E0952F
:1045D000E7FB0C944B22E92F0E94732258F3BA1781
:1045E000620773078407950720F079F4A6F50C9409
:1045F00095220EF4E0950B2EBA2FA02D0B01B901D8
:1046000090010C01CA01A0011124FF27591B99F048
:10461000593F50F4503E68F11A16F040A22F232F54
:10462000342F4427585FF3CF469537952795A795A4
:10463000F0405395C9F77EF41F16BA0B620B730B4B
:10464000840BBAF09150A1F0FF0FBB1F661F771FBC
:10465000881FC2F70EC0BA0F621F731F841F48F471
:10466000879577956795B795F7959E3F08F0B0CFFA
:104670009395880F08F09927EE0F979587950895E1
:104680000E9454230C9462220E945B2258F00E94E4
:10469000542240F029F45F3F29F00C944B22511131
:1046A0000C9496220C9451220E94732268F3992351
:1046B000B1F3552391F3951B550BBB27AA2762171E
:1046C0007307840738F09F5F5F4F220F331F441F2B
:1046D000AA1FA9F335D00E2E3AF0E0E832D091505F
:1046E0005040E695001CCAF72BD0FE2F29D0660F4C
:1046F000771F881FBB1F261737074807AB07B0E88F
:1047000009F0BB0B802DBF01FF2793585F4F3AF094
:104710009E3F510578F00C944B220C9496225F3FFB
:10472000E4F3983ED4F3869577956795B795F7951A
:104730009F5FC9F7880F911D9695879597F9089502
:10474000E1E0660F771F881FBB1F6217730784079E
:10475000BA0720F0621B730B840BBA0BEE1F88F7AD
:10476000E09508950E94B9236894B1110C949622A3
:1047700008950E947B2288F09F5798F0B92F9927BF
:10478000B751B0F0E1F0660F771F881F991F1AF03C
:10479000BA95C9F714C0B13091F00E949522B1E0EA
:1047A00008950C949522672F782F8827B85F39F0E9
:1047B000B93FCCF3869577956795B395D9F73EF4D5
:1047C00090958095709561957F4F8F4F9F4F08957D
:1047D0000E94BA2108F48FEF089597FB072E16F474
:1047E000009407D077FD09D00E94012407FC05D072
:1047F0003EF4909581959F4F0895709561957F4FF8
:104800000895AA1BBB1B51E107C0AA1FBB1FA61717
:10481000B70710F0A61BB70B881F991F5A95A9F769
:1048200080959095BC01CD010895EE0FFF1F059076
:10483000F491E02D09940F931F93CF93DF9382306F
:10484000910510F482E090E0E091CD03F091CE0369
:1048500020E030E0A0E0B0E0309719F140815181D4
:104860000281138148175907C8F08417950769F426
:10487000109731F012960C93129713961C9327C041
:104880000093CD031093CE0322C02115310519F0FA
:104890004217530718F49A01BD01EF01DF01F80137
:1048A000DBCF21153105F9F0281B390B24303105F8
:1048B00080F48A819B816115710521F0FB0193834E
:1048C000828304C09093CE038093CD03FE01329681
:1048D00044C0FE01E20FF31F8193919322503109EE
:1048E000398328833AC02091CB033091CC03232B0A
:1048F00041F420911401309115013093CC032093A1
:10490000CB0320911201309113012115310541F49F
:104910002DB73EB74091160150911701241B350B5E
:10492000E091CB03F091CC03E217F307A0F42E1B28
:104930003F0B2817390778F0AC014E5F5F4F241703
:10494000350748F04E0F5F1F5093CC034093CB03C5
:104950008193919302C0E0E0F0E0CF01DF91CF912D
:104960001F910F910895CF93DF93009709F481C0B1
:10497000FC01329713821282A091CD03B091CE0335
:10498000109781F420813181820F931F2091CB03F6
:104990003091CC032817390751F5F093CC03E093FD
:1049A000CB0367C0ED0120E030E0CE17DF0740F415
:1049B0004A815B819E0141155105F1F0EA01F5CF75
:1049C000D383C28340815181840F951FC817D907B3
:1049D00059F488819981840F951F02969183808371
:1049E0008A819B81938382832115310529F4F09379
:1049F000CE03E093CD033DC0E901FB83EA834991F7
:104A00005991C40FD51FEC17FD0761F48081918186
:104A1000840F951F0296E90199838883828193818F
:104A20009B838A83E0E0F0E012968D919C9113972E
:104A3000009719F0FD01DC01F7CF8D919C91119742
:104A40009D012E5F3F4F820F931F2091CB0330912A
:104A5000CC032817390769F4309729F41092CE0354
:104A60001092CD0302C013821282B093CC03A093A4
:104A7000CB03DF91CF910895A0E0B0E0E2E4F5E24E
:104A80000C94A022EC01009721F4CB010E941B247E
:104A9000B4C0FC01E60FF71F9C0122503109E21758
:104AA000F30708F4A8C0D9010D911C9111970617BE
:104AB0001707B0F00530110508F49BC0C801049732
:104AC0008617970708F495C002501109061B170BAB
:104AD000019311936D937C93CF010E94B32489C0FD
:104AE0005B01A01AB10A4C01800E911EA091CD036A
:104AF000B091CE03612C712CE12CF12C109709F4AC
:104B000046C08D919C911197A815B905B1F56C011E
:104B100042E0C40ED11CCA14DB0478F14C018A189F
:104B20009B08640142E0C40ED11C1296BC901297FF
:104B30001396AC91B5E0CB16D10440F0B282A383BA
:104B400091828082D9016D937C9309C00E5F1F4FC3
:104B5000800F911FF90191838083EB2DFA2FE114CF
:104B6000F10431F0D7011396FC93EE93129741C0F4
:104B7000F093CE03E093CD033CC06816790608F4A9
:104B80003C017D0112960D90BC91A02DB7CF809174
:104B9000CB039091CC0388169906E1F4661677064C
:104BA000C8F48091120190911301009741F48DB7E0
:104BB0009EB74091160150911701841B950BE81781
:104BC000F907C8F4F093CC03E093CB03F9017183A8
:104BD00060830FC0CB010E941B247C01009759F019
:104BE000A801BE010E940726CE010E94B324C7017E
:104BF00004C0CE0102C080E090E0CDB7DEB7EEE0A9
:104C00000C94BC2281E090E0F8940C942626FB01E1
:104C1000DC0102C001900D9241505040D8F7089538
:104C2000FB01DC0101900D920020E1F70895FB01EA
:104C3000DC014150504048F001900D920020C9F72E
:104C400001C01D9241505040E0F70895F894FFCF05
:104C50000001000120200020200020200020200052
:104C600002000000CF0380000000FF0000000000F1
:104C70004815240B53139515841362137613000003
:104C800000008F0E240B4E114D113E0D9B10C20CD7
:104C9000470C4C10B40B4E0BA10B7E0E312E53540F
:104CA00041525400322E53455454494E4753003319
:104CB0002E44455649434500342E4C4F475300314E
:104CC0002E5345542054454D50204200322E53451A
:104CD000542054454D50205200332E534554204902
:104CE00000342E52452D44454641554C5400494E02
:104CF00049542E2E2E005B7C7C202020202020205A
:104D000020205D005B7C7C7C7C20202020202020DB
:104D10005D005B7C7C7C7C7C7C20202020205D00F6
:104D20005B7C7C7C7C7C7C7C7C7C20205D005B7C58
:104D30007C7C7C7C7C7C7C7C7C7C5D00494E49540A
:104D40002E2E2E20444F4E4500312E544845524DB4
:104D500020423A00322E544845524D20523A0033F8
:104D60002E48414C4C3A00342E544845524D205068
:104D70003A004E4F4B00312E4552524F52204D5368
:104D8000473A00492057414E543A0043002D002B2A
:104D90000041005354415455530054454D50204256
:104DA0003A0054454D5020523A0048414C4C20495D
:104DB0003A0054454D5020503A00455252524F52FD
:104DC0003A004552524F522054454D502042004522
:104DD00052524F522054454D502052004552524F8E
:104DE000522049004552524F522054454D502064A4
:084DF00050004D454E55000036
:00000001FF
