:10000000B1C30000E0C30000DEC30000DCC3000099
:10001000DAC30000D8C30000D6C30000D4C3000078
:10002000D2C30000D0C30000CEC30000CCC3000088
:10003000CAC30000C8C30000C6C30000C4C3000098
:10004000C2C30000C0C30000BEC30000BCC30000A8
:10005000BAC30000B8C30000B6C300000C948A0BFA
:10006000B2C30000B0C30000AEC30000ACC30000C8
:10007000AAC30000A8C30000A6C30000A4C30000D8
:10008000A2C30000A0C300009EC300009CC30000E8
:100090009AC3000098C3000096C300000C94D40BD0
:1000A00092C3000090C300008EC300008CC3000008
:1000B0008AC3000088C3000086C3000084C3000018
:1000C00082C3000080C300007EC300007CC3000028
:1000D0007AC3000078C3000076C3000074C3000038
:1000E00072C3000000000000003E5B4F5B3E3E6BB1
:1000F0004F6B3E1C3E7C3E1C183C7E3C181C577DC2
:10010000571C1C5E7F5E1C00183C1800FFE7C3E70D
:10011000FF0018241800FFE7DBE7FF30483A060E1F
:100120002629792926407F050507407F05253F5A66
:100130003CE73C5A7F3E1C1C08081C1C3E7F1422D6
:100140007F22145F5F005F5F06097F017F00668981
:10015000956A606060606094A2FFA29408047E04C7
:100160000810207E201008082A1C08081C2A0808ED
:100170001E101010100C1E0C1E0C30383E383006AD
:100180000E3E0E06000000000000005F00000007A9
:10019000000700147F147F14242A7F2A12231308D7
:1001A000646236495620500008070300001C2241B3
:1001B000000041221C002A1C7F1C2A08083E080857
:1001C0000080703000080808080800006060002007
:1001D000100804023E5149453E00427F40007249EA
:1001E0004949462141494D331814127F102745458E
:1001F00045393C4A494931412111090736494949A4
:1002000036464949291E0000140000004034000011
:10021000000814224114141414140041221408027A
:10022000015909063E415D594E7C1211127C7F49ED
:100230004949363E414141227F4141413E7F494942
:1002400049417F090909013E414151737F0808086E
:100250007F00417F41002040413F017F081422413F
:100260007F404040407F021C027F7F0408107F3E99
:100270004141413E7F090909063E4151215E7F0906
:10028000192946264949493203017F01033F40406D
:10029000403F1F2040201F3F4038403F6314081458
:1002A0006303047804036159494D43007F41414190
:1002B0000204081020004141417F04020102044071
:1002C00040404040000307080020545478407F28F5
:1002D0004444383844444428384444287F385454EB
:1002E000541800087E090218A4A49C787F0804040E
:1002F0007800447D40002040403D007F10284400AD
:1003000000417F40007C047804787C08040478383D
:1003100044444438FC1824241818242418FC7C086D
:10032000040408485454542404043F44243C4040EA
:10033000207C1C2040201C3C4030403C442810289D
:10034000444C9090907C4464544C440008364100E6
:100350000000770000004136080002010204023C60
:100360002623263C1EA1A161123A4040207A38542F
:1003700054555921555579412154547841215554AA
:10038000784020545579400C1E52721239555555FB
:1003900059395454545939555454580000457C41E6
:1003A0000002457D420001457C40F0292429F0F0FF
:1003B000282528F07C545545002054547C547C0A50
:1003C000097F4932494949323248484832324A481D
:1003D00048303A4141217A3A42402078009DA0A01D
:1003E0007D39444444393D4040403D3C24FF242471
:1003F000487E4943662B2FFC2F2BFF0929F620C08E
:10040000887E090320545479410000447D413048DE
:10041000484A32384040227A007A0A0A727D0D1921
:10042000317D2629292F28262929292630484D4083
:1004300020380808080808080808382F10C8ACBA7F
:100440002F102834FA00007B000008142A142222FE
:10045000142A1408AA005500AAAA55AA55AA0000F1
:1004600000FF00101010FF00141414FF001010FF04
:1004700000FF1010F010F0141414FC001414F70016
:10048000FF0000FF00FF1414F404FC141417101FE5
:1004900010101F101F1414141F00101010F0000073
:1004A00000001F101010101F10101010F01000008E
:1004B00000FF101010101010101010FF100000009E
:1004C000FF140000FF00FF00001F10170000FC04D5
:1004D000F414141710171414F404F40000FF00F7B8
:1004E00014141414141414F700F71414141714101B
:1004F000101F101F141414F4141010F010F000004A
:100500001F101F0000001F14000000FC140000F06A
:1005100010F01010FF10FF141414FF141010101F0F
:1005200000000000F010FFFFFFFFFFF0F0F0F0F020
:10053000FFFFFF0000000000FFFF0F0F0F0F0F383D
:10054000444438447C2A2A3E147E02020606027E77
:10055000027E0263554941633844443C04407E2096
:100560001E2006027E020299A5E7A5991C2A492AA7
:100570001C4C7201724C304A4D4D30304878483036
:10058000BC625A463D3E494949007E0101017E2A2E
:100590002A2A2A2A44445F444440514A4440404461
:1005A0004A51400000FF0103E080FF000008086B93
:1005B0006B083612362436060F090F06000018188D
:1005C0000000001010003040FF0101001F01011E5B
:1005D00000191D1712003C3C3C3C000000000013B9
:1005E000018032118064260104B1020B14C002089C
:1005F00000C10105C5024130C701C1EC011B3A81B0
:1006000055642A040000007F2B040000009F36017F
:10061000C8B70100F20100E08F282422312B0E53CD
:10062000A5421618121A140332E18F171B1D0E145F
:10063000112CA53D09272D252B3C3213800A29803A
:10064000FF00002100240027002A002D0030003385
:100650000001010000040107010A01000022002539
:100660000028002B002E003100340002010000059C
:100670000108010B01000020002300260029002CA6
:10068000002F0032000001000003010601090105EE
:10069000050505070508080808020202020A0A08FB
:1006A0000804040404010101010101010103030321
:1006B0000303030303040707070C0C0C0C0C0C0CBE
:1006C0000C0202020206060606060606060B0B0BC5
:1006D0000B0B0B0B0B010210202008081020401000
:1006E00020408002010201080402010102040810F6
:1006F0002040808040201008040201800402018014
:10070000402010080402010804020101020408103C
:10071000204080010204081020408000000A0B02E3
:10072000090C0D0E08070304010000000000000082
:1007300000000000000000000000000000000000B9
:100740000000000000000012111000000000000076
:100750000000000000000000000000000000000099
:100760000000F70C11241FBECFEFD1E2DEBFCDBFDA
:1007700000E00CBF12E0A0E0B2E0EAEEF1E200E03F
:100780000BBF02C007900D92AE39B107D9F723E035
:10079000AEE9B2E001C01D92AF37B207E1F713E056
:1007A000C2EBD3E000E006C021970109802FFE01D3
:1007B0000E94E710C13BD10780E00807A9F70E941B
:1007C0003E0D0C94F3101CCC8150823108F05AC0BD
:1007D000E82FF0E08827E051FC4F8F4F0C94E71092
:1007E00010041404020408040C04420417041D0439
:1007F000210427042B042F043504390442043D044A
:1008000043044704809180008F778093800008958F
:10081000809180008F7DF9CF80918000877FF5CF18
:1008200084B58F7784BD089584B58F7DFBCF80918B
:10083000B0008F778093B00008958091B0008F7DD5
:10084000F9CF809190008F778093900008958091E8
:1008500090008F7DF9CF80919000877FF5CF8091B8
:10086000A0008F778093A00008958091A0008F7DD5
:10087000F9CF8091A000877FF5CF809120018F77FD
:10088000809320010895809120018F7DF9CF809180
:100890002001877FF5CFCF93DF93282F30E0F90138
:1008A000E55EF84F8491F901EB52F94FD491F901CB
:1008B000E157F94FC491CC2399F0811185DFEC2FDA
:1008C000F0E0EE0FFF1FEB58F94FA591B491EC91BA
:1008D000ED2381E090E009F480E0DF91CF9108956D
:1008E00080E090E0FACF1F93CF93DF93282F30E082
:1008F000F901E55EF84F8491F901EB52F94FD4917B
:10090000F901E157F94FC491CC23A1F0162F8111C1
:100910005BDFEC2FF0E0EE0FFF1FE55AF94FA591DA
:10092000B4918FB7F894EC91111108C0D095DE23E3
:10093000DC938FBFDF91CF911F910895DE2BF8CF0D
:10094000CF93DF9390E0FC01EB52F94F2491815754
:10095000994FFC0184918823D1F090E0880F991F72
:10096000FC01EF5BF94FA591B491FC01E55AF94FF9
:10097000C591D49161110EC09FB7F8948C91E22F6C
:10098000E0958E238C932881E223E8839FBFDF913B
:10099000CF9108958FB7F894EC91E22BEC938FBF31
:1009A000F6CF3FB7F8948091360390913703A0912A
:1009B0003803B091390326B5A89B05C02F3F19F025
:1009C0000196A11DB11D3FBFBA2FA92F982F8827CF
:1009D000BC01CD01620F711D811D911D42E0660FAA
:1009E000771F881F991F4A95D1F708958F929F927C
:1009F000AF92BF92CF92DF92EF92FF926B017C0198
:100A0000D0DF4B015C01C114D104E104F104B1F069
:100A1000C8DF681979098A099B09683E7340810516
:100A2000910588F321E0C21AD108E108F10888EEA7
:100A3000880E83E0981EA11CB11CE5CFFF90EF90BB
:100A4000DF90CF90BF90AF909F908F90089538E047
:100A5000439FC0011124807E977030E043E03595BC
:100A600027954A95E1F7822B932B70E0762F662726
:100A70006627787F862B972B089508950895AF9267
:100A8000BF92CF92DF92EF92FF920F931F93CF937B
:100A9000DF936C017B018B01040F151FEB015E01DD
:100AA000AE18BF08C017D10759F06991D601ED9172
:100AB000FC910190F081E02DC6011995892B79F701
:100AC000C501DF91CF911F910F91FF90EF90DF90C3
:100AD000CF90BF90AF90089585ED8093BC0080913A
:100AE000BC0084FDFCCF10922C0308952091DF02FE
:100AF000260F3327331F21323105ECF420912C03CC
:100B0000FC0190E080E0243069F082E00895A0913B
:100B1000DF022191AC0141545D4FA40FB52FB11DEF
:100B20002C930196861798F38091DF02680F6093EB
:100B3000DF0280E0089581E008950895E091300398
:100B400080912F03E81730F4F0E0E156FD4F8081EB
:100B500090E008958FEF9FEF08959091300380917A
:100B60002F032FEF3FEF981748F4E92FF0E0E156FD
:100B7000FD4F208130E09F5F90933003C9010895BD
:100B800080912F0390913003891B990B0895CF9387
:100B9000DF93CB01EA01642FA9DFCE01DF91CF9172
:100BA0000895CF93DF931F92CDB7DEB7698361E0DD
:100BB000CE0101969BDF81E090E00F90DF91CF9115
:100BC0000895CF93CFB7F89480919E02811123C0EE
:100BD000E4ECF6E08491EAE0F7E09491E82FF0E0AD
:100BE000EE0FFF1FEF5BF94FA591B491EC91E92354
:100BF00019F461E085E377DE61E085E3A1DE8CB581
:100C000080618CBD8CB580648CBD61E084E398DE2E
:100C100061E083E395DE80919E028F5F80939E0268
:100C2000CFBFCF910895EF92FF920F931F93DC01F6
:100C30001A960D911C911B9718962D913C9119971E
:100C4000ED91FC910288F389E02D7B0150E040E0BA
:100C500070E060E019951F910F91FF90EF9008955B
:100C6000BC0186E493E0DFCF08958CBD9DBD08955F
:100C700008952F923F924F925F926F927F928F9240
:100C80009F92AF92BF92CF92DF92EF92FF920F931B
:100C90001F93CF93DF93CDB7DEB72C970FB6F894A1
:100CA000DEBF0FBECDBF9C838B836A3061F5DC0154
:100CB00054968C91B8E08B9F90011124EB81FC81BC
:100CC00086859785820F931F97878687158614865A
:100CD00081E090E02C960FB6F894DEBF0FBECDBF3A
:100CE000DF91CF911F910F91FF90EF90DF90CF9008
:100CF000BF90AF909F908F907F906F905F904F903C
:100D00003F902F9008956D3019F32B813C813C87E3
:100D10002B87D9011C96CD90DC901D9718968D914C
:100D20009C911997C816D9060CF07FC01E968D901D
:100D30009C901F971A968D919C911B9788169906E7
:100D40000CF073C05496BC91B983AB2EB12CC60184
:100D5000E6E0BE9F800D911D1124181619060CF0B7
:100D600064C0C50143E0880F991F4A95E1F7880DDB
:100D7000991D181619060CF058C0D90152960D90FD
:100D8000BC91A02DBC83AB83F9010088F189E02DD3
:100D9000FE83ED83F5E06F9FB001112426011A82D6
:100DA0006C197D099B012C513F4F3A8729873A8165
:100DB000E0E0353029F0E985FA85E40DF51DE49190
:100DC0001401712C612C8E2F90E098878F83E0FFA7
:100DD0006AC0AB85BC85ED91FC91B981B13009F059
:100DE00055C00084F185E02D2D813E81A401460D82
:100DF000571DB2018B859C851995EF81F885F59576
:100E0000E795FFEF6F1A7F0A2A0C3B1C28E0621659
:100E10007104C9F63FEF431A530ACA0CDB1C5A810E
:100E20005F5F5A83563009F0C2CFAB85BC855496BC
:100E30004C915497242F30E01C968D919C91B6E0F4
:100E40004B9F800D911D1124EB85FC859587848730
:100E50004689442309F43CCF6AEF6203A001639FF3
:100E6000500D112460857185460F571F481759078B
:100E70000CF02ECF83E0220F331F8A95E1F7868591
:100E80009785280F391F3787268720CF0288F38957
:100E9000E02DED80FE8085019501A101B6018B85D5
:100EA0009C851995AACFEB81FC812D813E81E217AB
:100EB000F30709F4A2CFAB85BC85ED91FC91B98114
:100EC000B13031F40084F185E02D2B813C818ECF4F
:100ED0000288F389E02DEB80FC80DDCFEF92FF925A
:100EE0000F931F93DC011A960D911C911B97189676
:100EF0002D913C911997ED91FC910288F389E02D99
:100F00007B0150E040E070E060E019951F910F9187
:100F1000FF90EF9008956F927F928F929F92AF9281
:100F2000BF92CF92DF92EF92FF920F931F93CF93D6
:100F3000DF936C015A014801EB013B01620E731E05
:100F4000C615D70574F4D601ED91FC910484F5859E
:100F5000E02D87019401A501BE01C60119952196D6
:100F6000EFCFDF91CF911F910F91FF90EF90DF9026
:100F7000CF90BF90AF909F908F907F906F9008958B
:100F8000EF92FF920F931F93260F371F21503109C5
:100F9000DC01ED91FC910284F385E02D78018A015A
:100FA00019951F910F91FF90EF900895EF92FF9286
:100FB0000F931F93240F351F21503109DC01ED9150
:100FC000FC910284F385E02D780189019B0119953C
:100FD0001F910F91FF90EF9008956F927F928F92E3
:100FE0009F92AF92BF92CF92DF92EF92FF920F93B8
:100FF0001F93CF93DF93EC016B015A013901480134
:10100000E881F9810684F785E02D87011995A5010E
:10101000480D591D41505109E881F9810684F78531
:10102000E02D9301B601CE011995E881F981048480
:10103000F585E02D9401A501B601CE011995C60CE8
:10104000D71CB60161507109E881F9810484F585E6
:10105000E02D9401A501CE011995DF91CF911F914B
:101060000F91FF90EF90DF90CF90BF90AF909F9047
:101070008F907F906F9008952F923F924F925F9242
:101080006F927F928F929F92AF92BF92CF92DF9298
:10109000EF92FF920F931F93CF93DF9300D000D076
:1010A000CDB7DEB73C016A013E832D83FC82EB8223
:1010B0005801A41AB50AB7FE03C0B194A194B108AF
:1010C0008D809E80861A970A97FE03C09194819422
:1010D00091088A149B045CF0902F812F0D811E8152
:1010E0009D838E839C2D8D2D6B01692F782F0C1580
:1010F0001D055CF09D818E817E836D83692F782F25
:10110000902F812F8601C92ED82E1601201A310A60
:101110002B012D813E81421A530A57FE03C0519480
:1011200041945108710137FE03C03FEFE31AF30AFF
:10113000F594E7948D819E81861797075CF5A1E071
:10114000B0E0BA83A983C016D1064CF1D301ED916A
:10115000FC910084F185E02D2B813C81A8016D81FB
:101160007E818A149B041CF04D815E81B801C3010D
:101170001995E418F508F7FE0AC02D813E81898192
:101180009A81280F391F3E832D83E20CF31C0F5FD9
:101190001F4FD9CF2FEF3FEF3A832983D4CF269625
:1011A0000FB6F894DEBF0FBECDBFDF91CF911F9178
:1011B0000F91FF90EF90DF90CF90BF90AF909F90F6
:1011C0008F907F906F905F904F903F902F900895F9
:1011D000089590E080E008958EBD00000DB407FEF4
:1011E000FDCF8EB50895FC01862F968D28E030E066
:1011F00040E89111F1CFA1A1B2A196A5582F542397
:10120000A9F05C91952B9C93A3A1B4A19C9157A5A7
:10121000952B9C93A3A1B4A15C9197A59095952340
:101220009C9346952150310931F708955C91909532
:101230009523E9CF1F93CF93DF93EC01162F8E8D6B
:10124000882319F08F8D98A110DDEFA1F8A580817A
:1012500099A9892B8083EDA1FEA1908188A9809511
:1012600089238083612FCE01BEDFEDA1FEA18081A5
:1012700098A9892B8083DF91CF911F9108951F93A7
:10128000CF93DF93EC01162F8E8D882319F08F8D6D
:1012900098A1EBDCEFA1F8A5908189A9809589231D
:1012A0008083EDA1FEA1908188A980958923808308
:1012B000612FCE0198DFEDA1FEA1808198A9892B35
:1012C0008083DF91CF911F910895611102C060E288
:1012D000D6CF61E2FDCFEF92FF920F931F93CF9392
:1012E000DF93EC01E62E142FF22E6AE2C8DF60E0F5
:1012F000CE01A0DF6AA96E0DCE019CDF60E0CE01B9
:1013000099DF6AA96F0DCE0195DF6BE2CE01B7DFE1
:1013100060E0CE018FDF6BA9610FCE018BDF60E053
:10132000CE0188DF6BA9600FCE0184DF6CE2CE01B5
:10133000DF91CF911F910F91FF90EF90A0CFAF92CF
:10134000BF92CF92DF92EF92FF920F931F93CF93B2
:10135000DF93EC015901680128853985621773070D
:101360000CF062C08A859B85481759070CF05CC059
:10137000FB01EA0DFB1D2E173F071CF45901A61AAD
:10138000B70A9A012C0D3D1D821793071CF46C01BE
:10139000C41AD50A8D8D823091F4C701982F882701
:1013A000990F990F990F9701207E3770822B932BFD
:1013B000EF2CFF24E694E694E694E82AF92A0FEF4E
:1013C000040F0C0D2FEF260F2A0DCE0184DF8E8D1A
:1013D000882319F08F8D98A148DCEFA1F8A58081B2
:1013E00099A9892B8083EDA1FEA1908188A9809580
:1013F000892380831C141D048CF4850110161106AA
:101400004CF46F2DCE01EFDE6E2DCE01ECDE0150DF
:101410001109F4CF81E0C81AD108ECCFEDA1FEA1EB
:10142000808198A9892B8083DF91CF911F910F91A3
:10143000FF90EF90DF90CF90BF90AF900895CF9244
:10144000DF92EF92FF920F931F93CF93DF93EC0104
:101450006901780188859985681779070CF04EC075
:101460002A853B85421753070CF048C09B012C0D81
:101470003D1D821793071CF46C01C61AD70A2FEF83
:10148000260F2C0D042FCE0126DF8D8D823091F496
:10149000C701982F8827990F990F990F9701207EE0
:1014A0003770822B932BEF2CFF24E694E694E6947E
:1014B000E82AF92A8E8D882319F08F8D98A1D5DB23
:1014C000EFA1F8A5808199A9892B8083EDA1FEA1C8
:1014D000908188A980958923808381E0C81AD108EA
:1014E00038F06F2DCE017FDE6E2DCE017CDEF5CF84
:1014F000EDA1FEA1808198A9892B8083DF91CF91F6
:101500001F910F91FF90EF90DF90CF900895CF92B1
:10151000DF92EF92FF920F931F93CF93DF93EC0133
:101520006901780188859985681779070CF04FC0A3
:101530008A859B85481759070CF049C09A012C0DE4
:101540003D1D821793071CF46C01C41AD50A0FEFD6
:10155000040F0C0D262FCE01BEDE8D8D823091F44E
:10156000C701982F8827990F990F990F9701207E0F
:101570003770822B932BEF2CFF24E694E694E694AD
:10158000E82AF92A0F2D8E8D882319F08F8D98A1C6
:101590006CDBEFA1F8A5808199A9892B8083EDA14F
:1015A000FEA1908188A980958923808381E0C81A53
:1015B000D10838F0602FCE0116DE6E2DCE0113DE7D
:1015C000F5CFEDA1FEA1808198A9892B8083DF91C1
:1015D000CF911F910F91FF90EF90DF90CF900895E2
:1015E000EF92FF920F93CF93DF93EC01790177FD98
:1015F00047C088859985681779070CF041C057FD69
:101600003FC08A859B8548175907D4F501E0040F30
:1016100021E0260FCE015FDE8E8D882319F08F8D9D
:1016200098A123DBEFA1F8A5808199A9892B80835C
:10163000EDA1FEA1908188A98095892380838D8D5D
:10164000823091F4C701982F8827990F990F990F2D
:101650009701207E3770822B932BEF2CFF24E6948A
:10166000E694E694E82AF92A6F2DCE01BCDD6E2DB2
:10167000CE01B9DDEDA1FEA1808198A9892B8083DF
:10168000DF91CF910F91FF90EF9008951F93CF932B
:10169000DF93182FD62FC72F60E083E024D9812F46
:1016A0009BDD8D2F9C2F8F3F910519F014F08FEF4C
:1016B00090E097FD80E090DD61E083E0DF91CF91E5
:1016C0001F9111C920915F03222311F110925C0335
:1016D00020915D0330915E033093570320935603AE
:1016E000309359032093580370935303609352032C
:1016F0005093550340935403FC0101900020E9F7F7
:101700003197AF01481B590BBC0186E493E0B7C980
:10171000089565D51F920F920FB60F9211242F9343
:101720003F938F939F93AF93BF9380913203909198
:101730003303A0913403B09135033091310323E09A
:10174000230F2D3758F50196A11DB11D20933103AC
:101750008093320390933303A0933403B093350303
:101760008091360390913703A0913803B0913903EB
:101770000196A11DB11D8093360390933703A0936A
:101780003803B0933903BF91AF919F918F913F91EF
:101790002F910F900FBE0F901F90189526E8230FE2
:1017A0000296A11DB11DD2CF1F920F920FB60F92BC
:1017B00011240BB60F922F933F934F935F936F9328
:1017C0007F938F939F93AF93BF93EF93FF938091FA
:1017D000B900887F803609F44CC008F03FC08832D9
:1017E00009F4A8C028F5803109F49CC0C8F4882306
:1017F00009F4FAC0883009F495C0FF91EF91BF91C8
:10180000AF919F918F917F916F915F914F913F9198
:101810002F910F900BBE0F900FBE0F901F90189539
:10182000883109F487C0803241F78093020314C0E5
:10183000803409F49CC040F48033B9F38833E9F66E
:101840008093020385ECAFC0803509F484C08835ED
:1018500009F495C0883489F63FD9CFCF883909F487
:101860008CC038F5883729F050F4883611F080376D
:1018700021F683E080932C031092010357C088382F
:1018800009F47BC0803919F0803809F0B6CF809117
:101890000103803208F071C0E091010381E08E0FF6
:1018A000809301038091BB00F0E0EF51FD4F8083F6
:1018B0003DC0803B39F0E0F4803A09F479C0883AC1
:1018C00009F09BCF84E080932C031092E0021092E9
:1018D000DF02E0912803F091290319958091DF023E
:1018E00081110FC081E08093DF021092BF0209C016
:1018F000803C09F4A7CF883C09F4A4CF883B09F0C9
:101900007CCFE091E00281E08E0F8093E002F0E076
:10191000E154FD4F80818093BB009091E002809163
:10192000DF0229C0809125038093BB0085EC809362
:10193000BC0063CF9091240380912303981758F53E
:10194000E091240381E08E0F80932403F0E0ED5FAB
:10195000FC4F8081E9CFE091240381E08E0F8093DA
:1019600024038091BB00F0E0ED5FFC4F80839091F9
:101970002403809123039817C8F285E8D8CFE0911B
:10198000240381E08E0F809324038091BB00F0E05C
:10199000ED5FFC4F808380912B0381115DCF81E04F
:1019A00080932A0384EA8093BC0010922C0325CFF5
:1019B00085EC8093BC0010922C038091010380324F
:1019C00030F4E0910103F0E0EF51FD4F108260919F
:1019D000010370E0E0912603F091270381EE92E08D
:1019E00019951092010309CF1092020335CFEAE353
:1019F000F3E01382128288EE93E0A0E0B0E08483EB
:101A00009583A683B7838BE092E091838083EAE796
:101A1000F3E01482138288E4808399E09183128238
:101A2000E6E4F3E01382128220E830E03583248379
:101A300040EA50E057834683158A15861486178638
:101A4000168681E0848B6FEF7FEF738B628B718BD7
:101A5000608B868B60E5678F10A26AE061A792A712
:101A600098E093A7868F15A614A68DE192E0918346
:101A7000808351874087338722870895789484B57F
:101A8000826084BD84B5816084BD85B5826085BD7A
:101A900085B5816085BD80916E00816080936E0008
:101AA00010928100809181008260809381008091FA
:101AB00081008160809381008091800081608093AB
:101AC00080008091B10084608093B1008091B0006B
:101AD00081608093B000809191008260809391003A
:101AE000809191008160809391008091900081604D
:101AF000809390008091A10082608093A1008091EA
:101B0000A10081608093A1008091A00081608093FA
:101B1000A0008091210182608093210180912101A8
:101B20008160809321018091200181608093200158
:101B300080917A00846080937A0080917A0082603C
:101B400080937A0080917A00816080937A008091FE
:101B50007A00806880937A001092C10032D8109287
:101B600079031092780361E0809170030E94A004D1
:101B700061E080916F030E94A00480916F0390E068
:101B8000FC01E157F94FE491F0E0EE0FFF1FE55A39
:101B9000F94F2591349130936C0320936B03FC0132
:101BA000EB52F94FE491E09376038091700390E05B
:101BB000FC01E157F94FE491F0E0EE0FFF1FE55A09
:101BC000F94F2591349130936E0320936D03FC01FE
:101BD000EB52F94FE491E0937703809164038823FB
:101BE00009F45EC00E94E10580E5809365031092D0
:101BF0006603E0916B03F0916C0390818091760312
:101C000080958923808380917103882321F161E08D
:101C10000E94A00461E0809171030E94730464EF4C
:101C200071E080E090E00E94F60460E08091710332
:101C30000E94730464EF71E080E090E00E94F6047B
:101C400061E0809171030E94730464EF71E080E0B1
:101C500090E00E94F604EFEDF5E0F490C0EED5E0E0
:101C6000FA94FFEFFF1609F47AC0FE01649186E44E
:101C700093E005DB6E01F2E0CF0ED11CFE01319640
:101C8000E490CE2DCF778601DC2FD15008F451C0DF
:101C9000F801649186E493E0CDDA0F5F1F4FF5CF32
:101CA00061E0809173030E94A00461E0809172035F
:101CB0000E94A0048091730390E0FC01E157F94F6A
:101CC000E491F0E0EE0FFF1FE55AF94FA591B491B2
:101CD000B0936A03A09369038B52994FFC018491DE
:101CE000809375032091720330E0F901E157F94FB9
:101CF000E491F0E0EE0FFF1FE55AF94F4591549142
:101D00005093680340936703F901EB52F94FE49154
:101D1000E0937403EC9180958E238C93E09167039C
:101D2000F09168039081809174038095892380836A
:101D300060CFCC0DDD2DD11DE7FE92CF8E010F5F60
:101D40001F4FFE01649170E06F3F710511F464EF65
:101D500071E090E080E00E94F604E80181CF66E344
:101D600086E493E08CDAC1E0C0935B0368EA86E422
:101D700093E060DA80EA90E090934F0380934E0303
:101D800080E890E0909351038093500310923003C9
:101D900010922F0310922E0310922D0310922C03F9
:101DA000C0932B0310922A0361E084E10E94730424
:101DB00061E085E10E9473048091B9008E7F809379
:101DC000B9008091B9008D7F8093B90088E4809339
:101DD000B80085E48093BC008DE395E090932903DF
:101DE000809328038EE395E0909327038093260346
:101DF00061E083E00E94A00460E085E20E94A0040C
:101E000060E086E20E94A00461E087E20E94A004F4
:101E100061E088E20E94A00460E089E20E94A004E0
:101E200061E08AE20E94A00460E087E20E947304FD
:101E300060E088E20E94730461E08AE20E94730419
:101E400087EF8093000282E080935A038FEF9FEF29
:101E50000E943006C0935F0310925E0310925D03F0
:101E60001092570310925603109259031092580380
:101E700089E20E944B04892B09F03DC08FEF9FEF50
:101E80000E943006C0935F0380E098EF90935E035A
:101E900080935D0390935703809356039093590367
:101EA0008093580341E050E070E060E087E392E007
:101EB00009DC44E150E070E060E08DE392E002DC98
:101EC00048E250E070E060E088E492E0FBDBC09321
:101ED0005F0310925E0310925D03109257031092FD
:101EE0005603109259031092580368EE73E080E095
:101EF00090E00E94F60441E050E070E060E085E58B
:101F000092E0E0DB41E050E06AE870E080E092E0DF
:101F1000D9DB41E050E065E970E08AE592E0D2DB90
:101F20004AE150E070E060E08CE592E0CBDB4AE112
:101F300050E06AE870E080E092E0C4DB4AE150E003
:101F400065E970E08AE592E0BDDB4EE650E070E0C6
:101F500060E081E692E0B6DBC1E0C0935F0380E021
:101F600098EF90935E0380935D0390935703809363
:101F7000560390935903809358034EE650E060E770
:101F800070E087E692E09EDBC0935F0310925E03F1
:101F900010925D031092570310925603109259034A
:101FA0001092580311E0C0E0D8EF80E8E82EF12C41
:101FB00090E0C92E90E0D92E8FEF9FEF0E9430065F
:101FC00041E050E062E370E081E692E07BDB44E1D7
:101FD00050E070E060E08CE692E074DB10935F0309
:101FE000D0935E03C0935D03D0935703C093560311
:101FF000D0935903C09358034EE650E060E770E079
:1020000087E692E05FDB10935F0310925E0310920D
:102010005D031092570310925603109259031092C9
:10202000580368EE73E080E090E00E94F60488E2D6
:102030000E944B04892B21F060E088E20E94730427
:1020400061E087E20E947304F0920602E0920502CA
:10205000F0920402E092030244E150E070E060E09C
:1020600081E792E02FDB609105027091060281E129
:1020700090E00CDB64E670E080E090E00E94F60403
:1020800044E150E070E060E087E792E01BDB6091A4
:1020900003027091040282E190E0F8DA64E670E0F5
:1020A00080E090E00E94F60444E150E070E060E0DF
:1020B0008EE792E007DB68EE73E080E090E00E943C
:1020C000F60448E250E070E060E086E892E0FADA78
:1020D00068E873E180E090E00E94F6048FEF9FEFE4
:1020E0000E94300668EE73E080E090E00E94F60403
:1020F0008FEF9FEF0E94300641E050E062E370E016
:1021000087E692E0DFDA44E150E070E060E08CE6E0
:1021100092E0D8DA68EE73E080E090E00E94F60486
:1021200060E071E083E190E0B1DA44E150E070E01A
:1021300060E081E792E0C6DA68EE73E080E090E06C
:102140000E94F60444E150E070E060E087E792E02E
:10215000B9DA68EE73E080E090E00E94F60444E1B2
:1021600050E070E060E08EE792E0ACDA68EE73E099
:1021700080E090E00E94F60448E250E070E060E009
:1021800082E992E09FDA87E20E944B04892B21F0DA
:1021900060E087E20E94730461E088E20E947304B9
:1021A00068E873E180E090E00E94F6048FEF9FEF13
:1021B0000E94300668EE73E080E090E00E94F60432
:1021C000C114D10409F4F8CE0E940000F5CEEE0F40
:1021D000FF1F881F8BBF0790F691E02D199481E0B7
:0A21E00090E0F89400C0F894FFCFDF
:1021EA002020000001000100000000D105C705E918
:1021FA00089D05C005AD059E050000000039063F93
:10220A0005E908E808F00A3C08870A1F0AED079F53
:10221A0009130665092705424C414420004B4F4EDD
:10222A0054524F4C455241005A4153494C414E4930
:10223A004121212100545F6F3A004300545F623A02
:10224A000053544152540053544F5000494E49547C
:10225A0000494E49542E00494E49542E2E00494EEB
:10226A0049542E2E2E00444556205354415254456B
:0E227A0044004445562053544F5050454400F4
:020000023000CC
:10E000000D9489F10D94B2F10D94B2F10D94B2F129
:10E010000D94B2F10D94B2F10D94B2F10D94B2F1F0
:10E020000D94B2F10D94B2F10D94B2F10D94B2F1E0
:10E030000D94B2F10D94B2F10D94B2F10D94B2F1D0
:10E040000D94B2F10D94B2F10D94B2F10D94B2F1C0
:10E050000D94B2F10D94B2F10D94B2F10D94B2F1B0
:10E060000D94B2F10D94B2F10D94B2F10D94B2F1A0
:10E070000D94B2F10D94B2F10D94B2F10D94B2F190
:10E080000D94B2F10D94B2F10D94B2F10D94B2F180
:10E090000D94B2F10D94B2F10D94B2F10D94B2F170
:10E0A0000D94B2F10D94B2F10D94B2F10D94B2F160
:10E0B0000D94B2F10D94B2F10D94B2F10D94B2F150
:10E0C0000D94B2F10D94B2F10D94B2F10D94B2F140
:10E0D0000D94B2F10D94B2F10D94B2F10D94B2F130
:10E0E0000D94B2F141546D656761323536300041AF
:10E0F000726475696E6F206578706C6F72657220DE
:10E1000073746B3530305632206279204D4C530099
:10E11000426F6F746C6F616465723E004875683F52
:10E1200000436F6D70696C6564206F6E203D200048
:10E130004350552054797065202020203D20005FF9
:10E140005F4156525F415243485F5F3D2000415658
:10E1500052204C696243205665723D20004743437C
:10E160002056657273696F6E203D20004350552024
:10E1700049442020202020203D20004C6F7720663D
:10E18000757365202020203D20004869676820665F
:10E190007573652020203D200045787420667573D6
:10E1A00065202020203D20004C6F636B2066757336
:10E1B000652020203D20004D617220203720323024
:10E1C000313300312E362E3800342E332E350056A2
:10E1D00023202020414444522020206F7020636F70
:10E1E00064652020202020696E73747275637469E1
:10E1F0006F6E2061646472202020496E74657272B3
:10E20000757074006E6F20766563746F7200726A49
:10E210006D702020006A6D70200057686174207056
:10E220006F72743A00506F7274206E6F7420737541
:10E2300070706F72746564004D7573742062652030
:10E2400061206C6574746572002000577269747483
:10E25000696E672045450052656164696E672045B7
:10E26000450045452065727220636E743D00504F35
:10E27000525400303D5A65726F2061646472003FF1
:10E280003D43505520737461747300403D454550C3
:10E29000524F4D207465737400423D426C696E6B41
:10E2A000204C454400453D44756D70204545505215
:10E2B0004F4D00463D44756D7020464C415348001B
:10E2C000483D48656C70004C3D4C69737420492F83
:10E2D0004F20506F72747300513D51756974005234
:10E2E0003D44756D702052414D00563D73686F7707
:10E2F00020696E7465727275707420566563746FF0
:10E30000727300593D506F727420626C696E6B00BD
:10E310002A0011241FBECFEFD1E2DEBFCDBF01E046
:10E320000CBF12E0A0E0B2E0EEE1FDEF03E00BBFB6
:10E3300002C007900D92A030B107D9F712E0A0E01B
:10E34000B2E001C01D92AE30B107E1F70F9460F367
:10E350000D948DFE01E20EBF0FEF0DBF11241FBE05
:10E360000D9460F30D9400F020E030E040ED57E0B4
:10E3700005C0FA013197F1F72F5F3F4F2817390792
:10E38000C0F308959C01260F311DC901A0E0B0E043
:10E390002F5F3F4FABBFFC018791882361F08093D3
:10E3A000C6008091C00086FFFCCF8091C0008064D1
:10E3B0008093C000EACF08958DE08093C6008091DD
:10E3C000C00086FFFCCF8091C00080648093C000B5
:10E3D0008AE08093C6008091C00086FFFCCF8091C8
:10E3E000C00080648093C00008950F94C2F10F9420
:10E3F000DCF10895FC019081992359F09093C600B7
:10E400008091C00086FFFCCF8091C0008064809323
:10E41000C0003196992379F70895282F982F929567
:10E420009F70892F805D8A3308F0895F8093C600D2
:10E430008091C00086FFFCCF8091C00080648093F3
:10E44000C000822F8F70982F905D9A3308F0995FEB
:10E450009093C6008091C00086FFFCCF8091C000E1
:10E4600080648093C00008959C01FB01853691056E
:10E470001CF46330710594F0C90164E670E00F94F8
:10E480002EFE605D7F4F6093C6008091C00086FFC6
:10E49000FCCF8091C00080648093C0002B30310598
:10E4A00014F43297B4F0C90164E670E00F942EFEC4
:10E4B0006AE070E00F942EFE605D7F4F6093C600AF
:10E4C0008091C00086FFFCCF8091C0008064809363
:10E4D000C000C9016AE070E00F942EFEC0968093E0
:10E4E000C6008091C00086FFFCCF8091C000806490
:10E4F0008093C00008951F93182F8EE692EE60E07F
:10E500000F94C2F11093C6008091C00086FFFCCF2B
:10E510008091C00080648093C0000F94DCF11F9153
:10E5200008952F923F924F925F926F927F928F92B7
:10E530009F92AF92BF92CF92DF92EF92FF920F9392
:10E540001F93DF93CF93CDB7DEB762970FB6F894E2
:10E55000DEBF0FBECDBF382E622ECA01DB015C01CB
:10E560006D01772420E2222E2E010894411C511CBB
:10E570008BC081E0A81680E0B80681E0C80680E084
:10E58000D80628F0C601AA27BB270F940DF2BB2797
:10E59000AD2D9C2D8B2D0F940DF28A2D0F940DF225
:10E5A0002092C6008091C00086FFFCCF8091C00001
:10E5B00080648093C0009DE29093C6008091C0006B
:10E5C00086FFFCCF8091C00080648093C0002092C1
:10E5D000C6008091C00086FFFCCF8091C00080649F
:10E5E0008093C00019828601750188249924A1E0D6
:10E5F0003A1651F03A1620F0B2E03B1661F409C029
:10E600000BBFF701779007C0C7010F9477FE782EF4
:10E6100002C0F7017080872D0F940DF22092C60082
:10E620008091C00086FFFCCF8091C0008064809301
:10E63000C000872D8052F401EF70F0708F3520F408
:10E64000E40DF51D708204C0E40DF51D8EE280839B
:10E650000894E11CF11C011D111D0894811C911CE2
:10E6600090E18916910409F0C2CF80E190E0A0E02A
:10E67000B0E0A80EB91ECA1EDB1E198AC2010F9493
:10E68000FAF10F94DCF16A94662009F072CF629679
:10E690000FB6F894DEBF0FBECDBFCF91DF911F91B3
:10E6A0000F91FF90EF90DF90CF90BF90AF909F9031
:10E6B0008F907F906F905F904F903F902F90089534
:10E6C0002F923F924F925F926F927F928F929F9282
:10E6D000AF92BF92CF92DF92EF92FF920F931F9370
:10E6E000DF93CF93CDB7DEB7CD53D1400FB6F894BB
:10E6F000DEBF0FBECDBF01E20EBF0FEF0DBF94B75F
:10E70000F894A89514BE80916000886180936000A1
:10E7100010926000789493FF05C0E0910002F091A0
:10E7200001021995279A2F9A8091C00082608093E8
:10E73000C00080E18093C40088E18093C1000000A4
:10E74000EE24FF24870144E0A42EB12CCC24DD2448
:10E7500024C0C5010197F1F70894E11CF11C011DCB
:10E76000111D21E2E2162EE4F20620E0020720E06D
:10E77000120718F031E0C32ED12CC801B70127ECE5
:10E780003BE140E050E00F9441FE611571058105C9
:10E79000910519F485B1805885B98091C00087FD35
:10E7A00003C0C114D104A9F2A6014F5F5F4FC25E3E
:10E7B000DE4F59834883CE51D140C25EDE4F8881FF
:10E7C0009981CE51D140019711F00D9410FEC05D9A
:10E7D000DE4F19821882C053D14060E0C15DDE4F28
:10E7E0001882CF52D14088249924C35DDE4F19820C
:10E7F0001882CD52D140C05EDE4F188219821A8233
:10E800001B82C052D140CE5CDE4F188219821A8220
:10E810001B82C253D140EE24FF2487010BBFF701B6
:10E8200007911691C45CDE4F19830883CC53D14005
:10E830000D940BFEC25EDE4F28813981CE51D1404E
:10E840002130310509F52091C600C25EDE4F1982E4
:10E850001882CE51D14022C02F5F3F4F4F4F5F4FA4
:10E86000213082E138078AE7480780E0580780F0C6
:10E87000C45CDE4FE881F981CC53D140EF5FFF4F9C
:10E8800019F0EE27FF27099420E030E040E050E047
:10E890008091C00087FFE0CF2091C600C35DDE4FAE
:10E8A00048815981CD52D1404F5F5F4FC35DDE4FEC
:10E8B00059834883CD52D140213209F063C64A3092
:10E8C000510508F05FC60894811C911C53E0851621
:10E8D000910409F059C600E010E018C081E280936D
:10E8E000C6008091C00086FFFCCF8091C00080648C
:10E8F0008093C0002F5F3F4F2931310579F70F9486
:10E90000DCF10F5F1F4F0530110519F020E030E0FA
:10E91000E5CF10920A0210920B0210920C02109294
:10E920000D02109206021092070210920802109235
:10E930000902109202021092030210920402109235
:10E9400005028FEE90EE60E00F94F5F180E191EE1C
:10E9500060E00F94C2F18091C00087FFFCCF9091DE
:10E96000C600903608F09F759032B8F09093C600BC
:10E970008091C00086FFFCCF8091C00080648093AE
:10E98000C000A0E2A093C6008091C00086FFFCCF2B
:10E990008091C00080648093C000983409F4D7C18E
:10E9A0009934B8F4923409F459C1933458F490333B
:10E9B00019F1903308F4E3C59F33A1F1903409F0C5
:10E9C000DEC5BDC0953409F470C1963409F0D7C5D1
:10E9D00098C1923509F42BC2933538F49C3409F46C
:10E9E000F5C1913509F0CBC518C2963509F445C279
:10E9F000993509F0C4C567C483E792EE62E00F94CD
:10EA0000F5F110920602109207021092080210927D
:10EA1000090210920A0210920B0210920C0210923C
:10EA20000D0213C18FE792EE62E00F94F5F18FEEC5
:10EA300090EE60E00F94F5F181E291EE60E00F94CA
:10EA4000C2F187EB91EE60E00F94F5F180E391EE77
:10EA500060E00F94C2F184EE90EE60E00F94F5F167
:10EA60008FE391EE60E00F94C2F186E090E061E008
:10EA700070E00F9434F20F94DCF18DE591EE60E0DC
:10EA80000F94C2F189EC91EE60E00F94F5F18EE401
:10EA900091EE60E00F94C2F183EC91EE60E00F9490
:10EAA000F5F18CE691EE60E00F94C2F18EE10F94E7
:10EAB0000DF288E90F940DF281E00F940DF20F949E
:10EAC000DCF18BE791EE60E00F94C2F119E0E0E039
:10EAD000F0E010935700E4918E2F0F940DF20F94F5
:10EAE000DCF18AE891EE60E00F94C2F1E3E0F0E03F
:10EAF00010935700E4918E2F0F940DF20F94DCF1D8
:10EB000089E991EE60E00F94C2F1E2E0F0E0109349
:10EB10005700E4918E2F0F940DF20F94DCF188EAE8
:10EB200091EE60E00F94C2F1E1E0F0E01093570045
:10EB30001491812F0F940DF20F94DCF107CF8BE825
:10EB400092EE62E00F94F5F18BE492EE60E00F94A8
:10EB5000F5F10F94DCF100E010E019C0C8016F2D51
:10EB60000F947FFEFF2031F489E492EE60E00F9471
:10EB7000C2F10BC0F092C6008091C00086FFFCCFAE
:10EB80008091C00080648093C0000F5F1F4FC80158
:10EB900081519F41A0E0B0E0ABBFFC01F790BAE229
:10EBA000FB1621F0E2E000301E07C1F60F94DCF105
:10EBB0000F94DCF187E592EE60E00F94F5F10F948D
:10EBC000DCF1CC24DD2400E010E01EC0C8010F946D
:10EBD00077FEF82E882331F489E492EE60E00F94FA
:10EBE000C2F10BC08093C6008091C00086FFFCCFAD
:10EBF0008091C00080648093C000FE1419F00894D6
:10EC0000C11CD11C0F5F1F4FC80181519F41A0E063
:10EC1000B0E0ABBFFC01E790FAE2EF1621F022E092
:10EC20000030120799F60F94DCF10F94DCF182E6C4
:10EC300092EE60E00F94C2F1C60161E070E00F94C3
:10EC400034F20F94DCF10F94DCF110920202109276
:10EC50000302109204021092050278CE89E992EE26
:10EC600062E00F94F5F1279A2F9A16C02F9880E052
:10EC700090E0E0EDF7E03197F1F7019684369105E9
:10EC8000C1F72F9A80E090E0E0EDF7E03197F1F7DF
:10EC9000019684369105C1F78091C00087FFE6CFC9
:10ECA0008091C00087FFFCCF64C485EA92EE62E0E9
:10ECB0000F94F5F140910202509103026091040219
:10ECC0007091050281E020E10F9491F2809102029F
:10ECD00090910302A0910402B091050280509F4FD1
:10ECE000AF4FBF4F8093020290930302A0930402A0
:10ECF000B093050280509041A040B04008F426CE69
:10ED0000A4CF83EB92EE62E00F94F5F140910602FE
:10ED100050910702609108027091090280E020E1A1
:10ED20000F9491F28091060290910702A09108023F
:10ED3000B091090280509F4FAF4FBF4F80930602A2
:10ED400090930702A0930802B0930902FFCD80ECD4
:10ED500092EE62E00F94F5F183E792EE60E00F949B
:10ED6000F5F18FE792EE60E00F94F5F18BE892EE0B
:10ED700060E00F94F5F189E992EE60E00F94F5F10F
:10ED800085EA92EE60E00F94F5F183EB92EE60E09D
:10ED90000F94F5F180EC92EE60E00F94F5F187ECC2
:10EDA00092EE60E00F94F5F188ED92EE60E00F9442
:10EDB000F5F18FED92EE60E00F94F5F18AEE92EEB0
:10EDC00060E00F94F5F183E093EEBDCD87EC92EE19
:10EDD00062E00F94F5F181E40F947BF282E40F94EA
:10EDE0007BF283E40F947BF284E40F947BF285E45E
:10EDF0000F947BF286E40F947BF287E40F947BF20E
:10EE000088E40F947BF28AE40F947BF28BE40F94F6
:10EE10007BF28CE40F947BF299CD88ED92EE62E068
:10EE20000F94F5F1772473948824992409C48FED05
:10EE300092EE62E00F94F5F140910A0250910B02BC
:10EE400060910C0270910D0282E020E10F9491F22A
:10EE500080910A0290910B02A0910C02B0910D02D8
:10EE600080509F4FAF4FBF4F80930A0290930B0289
:10EE7000A0930C02B0930D0269CD8AEE92EE62E08F
:10EE80000F94F5F184EE90EE60E00F94F5F18FECC5
:10EE900091EE60E00F94F5F1662477244301CC5D98
:10EEA000DE4F19821882C452D140D401C301B695F5
:10EEB000A79597958795CA5DDE4F88839983AA8326
:10EEC000BB83C652D140CC5DDE4FA881B981C4520C
:10EED000D1401196CC5DDE4FB983A883C452D14096
:10EEE000CD0162E070E00F9434F2B0E2B093C6005E
:10EEF0008091C00086FFFCCF8091C0008064809329
:10EF0000C000EDE2E093C6008091C00086FFFCCF18
:10EF10008091C00080648093C000F0E2F093C6004E
:10EF20008091C00086FFFCCF8091C00080648093F8
:10EF3000C000CA5DDE4FE880F9800A811B81C6529D
:10EF4000D140BB27A12F902F8F2D0F940DF2CA5DBA
:10EF5000DE4F8881C652D1400F940DF2B0E2FB2EF5
:10EF6000F092C6008091C00086FFFCCF8091C00067
:10EF700080648093C0000DE30093C6008091C000C0
:10EF800086FFFCCF8091C00080648093C00010E2B7
:10EF90001093C6008091C00086FFFCCF8091C00016
:10EFA00080648093C0008BBEF3012791C65DDE4F65
:10EFB0002883CA52D140A22EBB24CC24DD2408943D
:10EFC000611C711C811C911C8BBEF3018791282E42
:10EFD0003324442455240894611C711C811C911C09
:10EFE0008BBEF3013791C55DDE4F3883CB52D140E4
:10EFF0000894611C711C811C911C8BBEF30147910C
:10F00000C45DDE4F4883CC52D140ADEFEA2EAFEF66
:10F01000FA2EAFEF0A2FAFEF1A2F6E0C7F1C801E57
:10F02000911E142D032DF22CEE24EA0CFB1C0C1D5A
:10F030001D1D0F940DF220E22093C6008091C000A8
:10F0400086FFFCCF8091C00080648093C000C65DC5
:10F05000DE4F8881CA52D1400F940DF230E23093D6
:10F06000C6008091C00086FFFCCF8091C000806404
:10F070008093C000C45DDE4F8881CC52D1400F9494
:10F080000DF240E24093C6008091C00086FFFCCFA5
:10F090008091C00080648093C000C55DDE4F888190
:10F0A000CB52D1400F940DF250E25093C6008091A4
:10F0B000C00086FFFCCF8091C00080648093C000B8
:10F0C0008FEFE8168FEFF80680E0080780E018075A
:10F0D00031F484E092EE60E00F94C2F1DFC0D80119
:10F0E000C7018070907CA070B0708050904CA040A0
:10F0F000B040D1F52FEF3FE340E050E0E222F322B1
:10F1000004231523CA5DDE4FA880B980CA80DB8046
:10F11000C652D140AE0CBF1CC01ED11EAA0CBB1CD7
:10F12000CC1CDD1C8EE092EE60E00F94C2F1BB2798
:10F13000A12F902F8F2D0F940DF28E2D0F940DF285
:10F1400030E23093C6008091C00086FFFCCF8091F2
:10F15000C00080648093C0004EE34093C60080915D
:10F16000C00086FFFCCF87C08EE09EEFA0E0B0E03D
:10F17000E822F9220A231B239CE0E91694E9F90608
:10F1800090E0090790E0190709F088C0C45DDE4FE0
:10F19000A881CC52D140EA2EFF2400E010E0102FCD
:10F1A0000F2DFE2CEE24C55DDE4FB881CB52D14031
:10F1B000EB0EF11C011D111DD601C501817090706F
:10F1C000A070B070DC0199278827E80EF91E0A1F8D
:10F1D0001B1F20EF30E040E050E0A222B322C42207
:10F1E000D52241E1AA0CBB1CCC1CDD1C4A95D1F7F1
:10F1F000EA0CFB1C0C1D1D1D81E090E0A0E0B0E0BE
:10F20000282239224A225B2235E1220C331C441C7D
:10F21000551C3A95D1F7E20CF31C041D151D57013E
:10F220006801AA0CBB1CCC1CDD1C85E192EE60E0E1
:10F230000F94C2F1C801AA27BB270F940DF2BB2778
:10F24000A12F902F8F2D0F940DF28E2D0F940DF274
:10F2500090E29093C6008091C00086FFFCCF809121
:10F26000C00080648093C000AEE3A093C60080918C
:10F27000C00086FFFCCF8091C00080648093C000F6
:10F28000C601AA27BB270F940DF2BB27AD2D9C2DDD
:10F290008B2D0F940DF28A2D0F940DF20F94DCF14B
:10F2A000CC5DDE4FE881F981C452D140F99709F471
:10F2B0004DCBF4E0EF2EF12C012D112D6E0C7F1CA7
:10F2C000801E911EF2CD83E093EE62E00F94F5F183
:10F2D0008AE192EE60E00F94C2F18091C00087FF56
:10F2E000FCCF1091C6001F751093C6008091C0001E
:10F2F00086FFFCCF8091C00080648093C0000F9493
:10F30000DCF1812F81548A3108F036C1163409F4BA
:10F3100095C0173490F4133409F44EC0143430F40B
:10F320001134F1F0123409F01DC130C0143409F465
:10F3300059C0153409F016C16BC01A3409F4C4C0A1
:10F340001B3438F4173409F48FC0183409F00AC19B
:10F35000A1C01B3409F4D2C01C3409F003C1E8C0B9
:10F360008FEF81B90DC082B1809582B980E090E0C5
:10F37000E0EDF7E03197F1F70196883C9105C1F790
:10F380008091C00087FFEFCF12B8EFC08FEF84B934
:10F390000DC085B1809585B980E090E0E0EDF7E0A3
:10F3A0003197F1F70196883C9105C1F78091C00033
:10F3B00087FFEFCF15B8D9C08FEF87B90DC088B1DF
:10F3C000809588B980E090E0E0EDF7E03197F1F7C3
:10F3D0000196883C9105C1F78091C00087FFEFCF6F
:10F3E00018B8C3C08FEF8AB90DC08BB180958BB9A7
:10F3F00080E090E0E0EDF7E03197F1F70196883C8E
:10F400009105C1F78091C00087FFEFCF1BB8ADC059
:10F410008FEF8DB90DC08EB180958EB980E090E0F0
:10F42000E0EDF7E03197F1F70196883C9105C1F7DF
:10F430008091C00087FFEFCF1EB897C08FEF80BBD1
:10F440000DC081B3809581BB80E090E0E0EDF7E0F6
:10F450003197F1F70196883C9105C1F78091C00082
:10F4600087FFEFCF11BA81C08FEF83BB0DC084B38C
:10F47000809584BB80E090E0E0EDF7E03197F1F714
:10F480000196883C9105C1F78091C00087FFEFCFBE
:10F4900014BA6BC08FEF809301010FC080910201FD
:10F4A00080958093020180E090E0E0EDF7E03197F5
:10F4B000F1F70196883C9105C1F78091C00087FF64
:10F4C000EDCF1092020151C08FEF809304010FC065
:10F4D0008091050180958093050180E090E0E0ED4A
:10F4E000F7E03197F1F70196883C9105C1F78091DB
:10F4F000C00087FFEDCF1092050137C08FEF8093DA
:10F5000007010FC08091080180958093080180E079
:10F5100090E0E0EDF7E03197F1F70196883C910536
:10F52000C1F78091C00087FFEDCF109208011DC088
:10F530008FEF80930A010FC080910B01809580931B
:10F540000B0180E090E0E0EDF7E03197F1F70196F4
:10F55000883C9105C1F78091C00087FFEDCF1092E4
:10F560000B0103C085E292EEEEC98091C00087FFD7
:10F57000FCCF8091C600EAC988E392EEE4C98CE131
:10F5800091EEE1C988249924933011F1943028F444
:10F59000913089F09230B8F408C0953061F195301F
:10F5A000F0F0963009F048C043C02B3109F042C951
:10F5B00091E06BE13FC96227C15DDE4F2883CF52E6
:10F5C000D14092E037C9B22FA0E0622793E032C960
:10F5D000822F90E0A82BB92B622794E02BC92E3004
:10F5E00009F039C3622795E0C05DDE4F19821882A9
:10F5F000C053D1401FC9E1E0F0E0EC0FFD1FC05D3A
:10F60000DE4F08811981C053D140E00FF11F2083E4
:10F610000F5F1F4FC05DDE4F19830883C053D14079
:10F6200062270A171B0709F005C9D80196E002C92D
:10F63000261709F010C303C0973009F0FBC87724E0
:10F640009981933109F412C19431C8F4963009F4C8
:10F65000D8C0973050F4923009F406C1933009F4C1
:10F660006DC0913009F059C253C0913109F477C08F
:10F67000923108F0BBC0903109F04FC2F5C098310B
:10F6800009F487C0993150F4953109F4EFC09531F0
:10F6900008F4C6C1963109F040C2C2C19A3109F4DA
:10F6A0006CC09A3108F491C09B3109F45BC09D3164
:10F6B00009F033C29D81903359F48F81882311F46E
:10F6C0009EE11CC0813011F091E018C098E916C08D
:10F6D000892F807591F0903539F4E0E0F0E089E011
:10F6E0008093570094910AC0983539F4E3E0F0E034
:10F6F00089E080935700949101C090E01A821B82A8
:10F700008D818C831D829E831F8227E030E009C299
:10F710001A8288E08B8381E48C8386E58D8382E581
:10F720008E8389E48F8383E5888780E589878FE5E9
:10F730008A8782E38B872BE030E0F3C18A818139AD
:10F7400041F0823941F0803911F48FE005C080E04A
:10F7500003C082E001C08AE01A828B8344C0772410
:10F76000739482C08D81882311F48EE12CC0813086
:10F7700011F081E028C088E926C01A82E1E0F0E0BB
:10F7800089E08093570084918B831C8224E030E0D1
:10F79000C8C18B81803589F48C81883039F4E2E0EE
:10F7A000F0E089E08093570084910DC0E0E0F0E044
:10F7B00089E080935700849106C0E3E0F0E089E09F
:10F7C0008093570084911A82DFCF8D81836C99E0FA
:10F7D000E1E0F0E0082E90935700E89507B600FCB2
:10F7E000FDCF1A821B8223E030E09BC180EC8A832C
:10F7F000CE5CDE4F188219821A821B82C253D1401E
:10F800008EC18A8190E0A0E0B0E0582F44273327D2
:10F8100022278B8190E0A0E0B0E0DC0199278827C7
:10F82000282B392B4A2B5B2B8D8190E0A0E0B0E098
:10F83000282B392B4A2B5B2B8C8190E0A0E0B0E089
:10F84000BA2FA92F982F8827282B392B4A2B5B2BCF
:10F85000220F331F441F551FC05EDE4F288339839C
:10F860004A835B83C052D1401A8259C13A81C95C34
:10F87000DE4F3883C753D140CA5CDE4F1882C6536F
:10F88000D1408B81C82EDD24CA5CDE4F488159816E
:10F89000C653D140C42AD52A933109F082C0CE5C28
:10F8A000DE4F88819981AA81BB81C253D1408050AB
:10F8B000904CA340B04030F583E0CE5CDE4FE88052
:10F8C000F9800A811B81C253D140F70100935B008C
:10F8D00080935700E89507B600FCFDCFCE5CDE4F65
:10F8E000088119812A813B81C253D14000501F4FAA
:10F8F0002F4F3F4FCE5CDE4F088319832A833B8313
:10F90000C253D140C05EDE4F488159816A817B81FC
:10F91000C052D140DE011B9631E08C9111962C91A2
:10F9200011971296C75CDE4F2883C953D140C85C3B
:10F93000DE4F1882C853D14090E0C85CDE4FE881AA
:10F94000F981C853D1408E2B9F2B0C01FA01609393
:10F950005B0030935700E89511244E5F5F4F6F4F67
:10F960007F4F0EEFE02E0FEFF02ECE0CDF1CC114F8
:10F97000D10499F685E0C05EDE4F088119812A81A5
:10F980003B81C052D140F80120935B008093570027
:10F99000E89507B600FCFDCF81E180935700E8951C
:10F9A00035C0C05EDE4F88819981AA81BB81C0527B
:10F9B000D140B695A795979587957C018601ABE0D8
:10F9C000AA2EB12CAC0EBD1E0BC0D5016D915D01F0
:10F9D000C7010F947FFE0894E11CF11C01501040F8
:10F9E0000115110591F7A60160E070E0440F551F65
:10F9F000661F771FC05EDE4FE880F9800A811B8199
:10FA0000C052D1404E0D5F1D601F711F1A82C05E33
:10FA1000DE4F488359836A837B83C052D1407FC0C5
:10FA2000FA80C55CDE4FF882CB53D140C65CDE4F16
:10FA30001882CA53D1408B81C82EDD24C65CDE4FAC
:10FA400008811981CA53D140C02AD12A1A828981DA
:10FA5000BE016D5F7F4F843121F59601C05EDE4FA0
:10FA6000E880F9800A811B81C052D1400BBFF701A9
:10FA700087919691DB018C9311969C936E5F7F4FDB
:10FA8000D801C7010296A11DB11DC05EDE4F88835B
:10FA90009983AA83BB83C052D14022503040F1F6F3
:10FAA00036C0C05EDE4F288139814A815B81C052F9
:10FAB000D1400894C108D108760100E010E0089414
:10FAC000C11CD11C0894E11CF11C011D111DE20E8A
:10FAD000F31E041F151F21BDBB27A52F942F832FB5
:10FAE00082BD2F5F3F4F4F4F5F4FF89A80B5DB01CC
:10FAF0008D93BD012E153F054007510761F7C05E8C
:10FB0000DE4F288339834A835B83C052D1409601FC
:10FB10002D5F3F4FFB01108204C080EC8A8322E0FE
:10FB200030E08BE18093C6008091C00086FFFCCF5F
:10FB30008091C00080648093C000C15DDE4FF88179
:10FB4000CF52D140F093C6008091C00086FFFCCF19
:10FB50008091C00080648093C000432F3093C60022
:10FB60008091C00086FFFCCF8091C00080648093AC
:10FB7000C000922F2093C6008091C00086FFFCCF6A
:10FB80008091C00080648093C0008EE08093C600A6
:10FB90008091C00086FFFCCF8091C000806480937C
:10FBA000C00065E1C15DDE4FE880CF52D1406E25D7
:10FBB00069276427FE01319610C090819093C6009A
:10FBC0008091C00086FFFCCF31968091C000806498
:10FBD0008093C0006927215030402115310569F715
:10FBE0006093C6008091C00086FFFCCF8091C0006A
:10FBF00080648093C00085B1805885B9772081F4F6
:10FC0000C15DDE4F0881CF52D1400F5FC15DDE4F35
:10FC10000883CF52D14090E0A0E0B0E00D941AF4F8
:10FC200027982F9880E090E020ED37E0F901319798
:10FC3000F1F7019684369105C9F700008091C00064
:10FC40008D7F8093C00081E180935700E895EE2777
:10FC5000FF270994FFCF90E00D941AF497FB092E2B
:10FC600007260AD077FD04D02ED006D000201AF443
:10FC7000709561957F4F0895F6F7909581959F4F08
:10FC80000895A1E21A2EAA1BBB1BFD010DC0AA1FDD
:10FC9000BB1FEE1FFF1FA217B307E407F50720F0F5
:10FCA000A21BB30BE40BF50B661F771F881F991F70
:10FCB0001A9469F760957095809590959B01AC01B9
:10FCC000BD01CF010895AA1BBB1B51E107C0AA1FAC
:10FCD000BB1FA617B70710F0A61BB70B881F991FED
:10FCE0005A95A9F780959095BC01CD010895F99991
:10FCF000FECF92BD81BDF89A992780B50895262F31
:10FD0000F999FECF1FBA92BD81BD20BD0FB6F89400
:0EFD1000FA9AF99A0FBE01960895F894FFCF63
:040000033000E000E9
:00000001FF
